{
	"src/FundMe.sol": {
		"FundMe": {
			"abi": [
				{
					"inputs": [
						{
							"internalType": "address",
							"name": "priceFeed",
							"type": "address"
						}
					],
					"stateMutability": "nonpayable",
					"type": "constructor"
				},
				{
					"inputs": [],
					"name": "FundMe__NotOwner",
					"type": "error"
				},
				{
					"inputs": [],
					"name": "MINIMUM_USD",
					"outputs": [
						{
							"internalType": "uint256",
							"name": "",
							"type": "uint256"
						}
					],
					"stateMutability": "view",
					"type": "function"
				},
				{
					"inputs": [],
					"name": "cheaperWithdraw",
					"outputs": [],
					"stateMutability": "nonpayable",
					"type": "function"
				},
				{
					"inputs": [],
					"name": "fund",
					"outputs": [],
					"stateMutability": "payable",
					"type": "function"
				},
				{
					"inputs": [
						{
							"internalType": "address",
							"name": "fundingAddress",
							"type": "address"
						}
					],
					"name": "getAddressToAmountFunded",
					"outputs": [
						{
							"internalType": "uint256",
							"name": "",
							"type": "uint256"
						}
					],
					"stateMutability": "view",
					"type": "function"
				},
				{
					"inputs": [],
					"name": "getDecimals",
					"outputs": [
						{
							"internalType": "uint8",
							"name": "",
							"type": "uint8"
						}
					],
					"stateMutability": "view",
					"type": "function"
				},
				{
					"inputs": [],
					"name": "getDescription",
					"outputs": [
						{
							"internalType": "string",
							"name": "",
							"type": "string"
						}
					],
					"stateMutability": "view",
					"type": "function"
				},
				{
					"inputs": [
						{
							"internalType": "uint256",
							"name": "index",
							"type": "uint256"
						}
					],
					"name": "getFunder",
					"outputs": [
						{
							"internalType": "address",
							"name": "",
							"type": "address"
						}
					],
					"stateMutability": "view",
					"type": "function"
				},
				{
					"inputs": [],
					"name": "getOwner",
					"outputs": [
						{
							"internalType": "address",
							"name": "",
							"type": "address"
						}
					],
					"stateMutability": "view",
					"type": "function"
				},
				{
					"inputs": [],
					"name": "getPriceFeed",
					"outputs": [
						{
							"internalType": "contract IAggregator",
							"name": "",
							"type": "address"
						}
					],
					"stateMutability": "view",
					"type": "function"
				},
				{
					"inputs": [],
					"name": "withdraw",
					"outputs": [],
					"stateMutability": "nonpayable",
					"type": "function"
				}
			],
			"devdoc": {
				"author": "Patrick Collins",
				"details": "This implements price feeds as our library",
				"kind": "dev",
				"methods": {
					"getAddressToAmountFunded(address)": {
						"params": {
							"fundingAddress": "the address of the funder"
						},
						"returns": {
							"_0": "the amount funded"
						}
					},
					"getFunder(uint256)": {
						"params": {
							"index": "the index of the funder"
						},
						"returns": {
							"_0": "the address of the funder"
						}
					}
				},
				"title": "A sample Funding Contract",
				"version": 1
			},
			"evm": {
				"assembly": "    /* \"src/FundMe.sol\":763:6978  contract FundMe {... */\n  mstore(0x40, 0xa0)\n    /* \"src/FundMe.sol\":2446:2721  constructor(address priceFeed) {... */\n  callvalue\n  dup1\n  iszero\n  tag_1\n  jumpi\n  0x00\n  dup1\n  revert\ntag_1:\n  pop\n  mload(0x40)\n  sub(codesize, bytecodeSize)\n  dup1\n  bytecodeSize\n  dup4\n  codecopy\n  dup2\n  dup2\n  add\n  0x40\n  mstore\n  dup2\n  add\n  swap1\n  tag_2\n  swap2\n  swap1\n  tag_3\n  jump\t// in\ntag_2:\n    /* \"src/FundMe.sol\":2593:2602  priceFeed */\n  dup1\n    /* \"src/FundMe.sol\":2567:2578  s_priceFeed */\n  0x02\n  0x00\n    /* \"src/FundMe.sol\":2567:2603  s_priceFeed = IAggregator(priceFeed) */\n  0x0100\n  exp\n  dup2\n  sload\n  dup2\n  0xffffffffffffffffffffffffffffffffffffffff\n  mul\n  not\n  and\n  swap1\n  dup4\n  0xffffffffffffffffffffffffffffffffffffffff\n  and\n  mul\n  or\n  swap1\n  sstore\n  pop\n    /* \"src/FundMe.sol\":2703:2713  msg.sender */\n  caller\n    /* \"src/FundMe.sol\":2693:2713  i_owner = msg.sender */\n  0xffffffffffffffffffffffffffffffffffffffff\n  and\n  0x80\n  dup2\n  0xffffffffffffffffffffffffffffffffffffffff\n  and\n  dup2\n  mstore\n  pop\n  pop\n    /* \"src/FundMe.sol\":2446:2721  constructor(address priceFeed) {... */\n  pop\n    /* \"src/FundMe.sol\":763:6978  contract FundMe {... */\n  jump(tag_6)\n    /* \"#utility.yul\":88:205   */\ntag_8:\n    /* \"#utility.yul\":197:198   */\n  0x00\n    /* \"#utility.yul\":194:195   */\n  dup1\n    /* \"#utility.yul\":187:199   */\n  revert\n    /* \"#utility.yul\":334:460   */\ntag_10:\n    /* \"#utility.yul\":371:378   */\n  0x00\n    /* \"#utility.yul\":411:453   */\n  0xffffffffffffffffffffffffffffffffffffffff\n    /* \"#utility.yul\":404:409   */\n  dup3\n    /* \"#utility.yul\":400:454   */\n  and\n    /* \"#utility.yul\":389:454   */\n  swap1\n  pop\n    /* \"#utility.yul\":334:460   */\n  swap2\n  swap1\n  pop\n  jump\t// out\n    /* \"#utility.yul\":466:562   */\ntag_11:\n    /* \"#utility.yul\":503:510   */\n  0x00\n    /* \"#utility.yul\":532:556   */\n  tag_20\n    /* \"#utility.yul\":550:555   */\n  dup3\n    /* \"#utility.yul\":532:556   */\n  tag_10\n  jump\t// in\ntag_20:\n    /* \"#utility.yul\":521:556   */\n  swap1\n  pop\n    /* \"#utility.yul\":466:562   */\n  swap2\n  swap1\n  pop\n  jump\t// out\n    /* \"#utility.yul\":568:690   */\ntag_12:\n    /* \"#utility.yul\":641:665   */\n  tag_22\n    /* \"#utility.yul\":659:664   */\n  dup2\n    /* \"#utility.yul\":641:665   */\n  tag_11\n  jump\t// in\ntag_22:\n    /* \"#utility.yul\":634:639   */\n  dup2\n    /* \"#utility.yul\":631:666   */\n  eq\n    /* \"#utility.yul\":621:684   */\n  tag_23\n  jumpi\n    /* \"#utility.yul\":680:681   */\n  0x00\n    /* \"#utility.yul\":677:678   */\n  dup1\n    /* \"#utility.yul\":670:682   */\n  revert\n    /* \"#utility.yul\":621:684   */\ntag_23:\n    /* \"#utility.yul\":568:690   */\n  pop\n  jump\t// out\n    /* \"#utility.yul\":696:839   */\ntag_13:\n    /* \"#utility.yul\":753:758   */\n  0x00\n    /* \"#utility.yul\":784:790   */\n  dup2\n    /* \"#utility.yul\":778:791   */\n  mload\n    /* \"#utility.yul\":769:791   */\n  swap1\n  pop\n    /* \"#utility.yul\":800:833   */\n  tag_25\n    /* \"#utility.yul\":827:832   */\n  dup2\n    /* \"#utility.yul\":800:833   */\n  tag_12\n  jump\t// in\ntag_25:\n    /* \"#utility.yul\":696:839   */\n  swap3\n  swap2\n  pop\n  pop\n  jump\t// out\n    /* \"#utility.yul\":845:1196   */\ntag_3:\n    /* \"#utility.yul\":915:921   */\n  0x00\n    /* \"#utility.yul\":964:966   */\n  0x20\n    /* \"#utility.yul\":952:961   */\n  dup3\n    /* \"#utility.yul\":943:950   */\n  dup5\n    /* \"#utility.yul\":939:962   */\n  sub\n    /* \"#utility.yul\":935:967   */\n  slt\n    /* \"#utility.yul\":932:1051   */\n  iszero\n  tag_27\n  jumpi\n    /* \"#utility.yul\":970:1049   */\n  tag_28\n  tag_8\n  jump\t// in\ntag_28:\n    /* \"#utility.yul\":932:1051   */\ntag_27:\n    /* \"#utility.yul\":1090:1091   */\n  0x00\n    /* \"#utility.yul\":1115:1179   */\n  tag_29\n    /* \"#utility.yul\":1171:1178   */\n  dup5\n    /* \"#utility.yul\":1162:1168   */\n  dup3\n    /* \"#utility.yul\":1151:1160   */\n  dup6\n    /* \"#utility.yul\":1147:1169   */\n  add\n    /* \"#utility.yul\":1115:1179   */\n  tag_13\n  jump\t// in\ntag_29:\n    /* \"#utility.yul\":1105:1179   */\n  swap2\n  pop\n    /* \"#utility.yul\":1061:1189   */\n  pop\n    /* \"#utility.yul\":845:1196   */\n  swap3\n  swap2\n  pop\n  pop\n  jump\t// out\n    /* \"src/FundMe.sol\":763:6978  contract FundMe {... */\ntag_6:\n  mload(0x80)\n  codecopy(0x00, dataOffset(sub_0), dataSize(sub_0))\n  0x00\n  assignImmutable(\"0x7fe86492ed9171487feeb17b76d71244c5fb104d897816bb03a924e5871f3fa3\")\n  return(0x00, dataSize(sub_0))\nstop\n\nsub_0: assembly {\n        /* \"src/FundMe.sol\":763:6978  contract FundMe {... */\n      mstore(0x40, 0x80)\n      jumpi(tag_1, lt(calldatasize, 0x04))\n      shr(0xe0, calldataload(0x00))\n      dup1\n      0x9e87a5cd\n      gt\n      tag_12\n      jumpi\n      dup1\n      0x9e87a5cd\n      eq\n      tag_7\n      jumpi\n      dup1\n      0xb60d4288\n      eq\n      tag_8\n      jumpi\n      dup1\n      0xbe2693f0\n      eq\n      tag_9\n      jumpi\n      dup1\n      0xd7b4750c\n      eq\n      tag_10\n      jumpi\n      dup1\n      0xf0141d84\n      eq\n      tag_11\n      jumpi\n      jump(tag_1)\n    tag_12:\n      dup1\n      0x0343fb25\n      eq\n      tag_2\n      jumpi\n      dup1\n      0x1a092541\n      eq\n      tag_3\n      jumpi\n      dup1\n      0x3ccfd60b\n      eq\n      tag_4\n      jumpi\n      dup1\n      0x6b69a592\n      eq\n      tag_5\n      jumpi\n      dup1\n      0x893d20e8\n      eq\n      tag_6\n      jumpi\n    tag_1:\n      0x00\n      dup1\n      revert\n        /* \"src/FundMe.sol\":5935:6088  function getAddressToAmountFunded(address fundingAddress) public view returns (uint256) {... */\n    tag_2:\n      callvalue\n      dup1\n      iszero\n      tag_13\n      jumpi\n      0x00\n      dup1\n      revert\n    tag_13:\n      pop\n      tag_14\n      0x04\n      dup1\n      calldatasize\n      sub\n      dup2\n      add\n      swap1\n      tag_15\n      swap2\n      swap1\n      tag_16\n      jump\t// in\n    tag_15:\n      tag_17\n      jump\t// in\n    tag_14:\n      mload(0x40)\n      tag_18\n      swap2\n      swap1\n      tag_19\n      jump\t// in\n    tag_18:\n      mload(0x40)\n      dup1\n      swap2\n      sub\n      swap1\n      return\n        /* \"src/FundMe.sol\":6862:6975  function getDescription() public view returns (string memory) {... */\n    tag_3:\n      callvalue\n      dup1\n      iszero\n      tag_20\n      jumpi\n      0x00\n      dup1\n      revert\n    tag_20:\n      pop\n      tag_21\n      tag_22\n      jump\t// in\n    tag_21:\n      mload(0x40)\n      tag_23\n      swap2\n      swap1\n      tag_24\n      jump\t// in\n    tag_23:\n      mload(0x40)\n      dup1\n      swap2\n      sub\n      swap1\n      return\n        /* \"src/FundMe.sol\":3442:4936  function withdraw() public onlyOwner {... */\n    tag_4:\n      callvalue\n      dup1\n      iszero\n      tag_25\n      jumpi\n      0x00\n      dup1\n      revert\n    tag_25:\n      pop\n      tag_26\n      tag_27\n      jump\t// in\n    tag_26:\n      stop\n        /* \"src/FundMe.sol\":1114:1164  uint256 public constant MINIMUM_USD = 5 * 10 ** 18 */\n    tag_5:\n      callvalue\n      dup1\n      iszero\n      tag_28\n      jumpi\n      0x00\n      dup1\n      revert\n    tag_28:\n      pop\n      tag_29\n      tag_30\n      jump\t// in\n    tag_29:\n      mload(0x40)\n      tag_31\n      swap2\n      swap1\n      tag_19\n      jump\t// in\n    tag_31:\n      mload(0x40)\n      dup1\n      swap2\n      sub\n      swap1\n      return\n        /* \"src/FundMe.sol\":6415:6498  function getOwner() public view returns (address) {... */\n    tag_6:\n      callvalue\n      dup1\n      iszero\n      tag_32\n      jumpi\n      0x00\n      dup1\n      revert\n    tag_32:\n      pop\n      tag_33\n      tag_34\n      jump\t// in\n    tag_33:\n      mload(0x40)\n      tag_35\n      swap2\n      swap1\n      tag_36\n      jump\t// in\n    tag_35:\n      mload(0x40)\n      dup1\n      swap2\n      sub\n      swap1\n      return\n        /* \"src/FundMe.sol\":6543:6638  function getPriceFeed() public view returns (IAggregator) {... */\n    tag_7:\n      callvalue\n      dup1\n      iszero\n      tag_37\n      jumpi\n      0x00\n      dup1\n      revert\n    tag_37:\n      pop\n      tag_38\n      tag_39\n      jump\t// in\n    tag_38:\n      mload(0x40)\n      tag_40\n      swap2\n      swap1\n      tag_41\n      jump\t// in\n    tag_40:\n      mload(0x40)\n      dup1\n      swap2\n      sub\n      swap1\n      return\n        /* \"src/FundMe.sol\":2884:3434  function fund() public payable {... */\n    tag_8:\n      tag_42\n      tag_43\n      jump\t// in\n    tag_42:\n      stop\n        /* \"src/FundMe.sol\":4944:5671  function cheaperWithdraw() public onlyOwner {... */\n    tag_9:\n      callvalue\n      dup1\n      iszero\n      tag_44\n      jumpi\n      0x00\n      dup1\n      revert\n    tag_44:\n      pop\n      tag_45\n      tag_46\n      jump\t// in\n    tag_45:\n      stop\n        /* \"src/FundMe.sol\":6253:6359  function getFunder(uint256 index) public view returns (address) {... */\n    tag_10:\n      callvalue\n      dup1\n      iszero\n      tag_47\n      jumpi\n      0x00\n      dup1\n      revert\n    tag_47:\n      pop\n      tag_48\n      0x04\n      dup1\n      calldatasize\n      sub\n      dup2\n      add\n      swap1\n      tag_49\n      swap2\n      swap1\n      tag_50\n      jump\t// in\n    tag_49:\n      tag_51\n      jump\t// in\n    tag_48:\n      mload(0x40)\n      tag_52\n      swap2\n      swap1\n      tag_36\n      jump\t// in\n    tag_52:\n      mload(0x40)\n      dup1\n      swap2\n      sub\n      swap1\n      return\n        /* \"src/FundMe.sol\":6699:6798  function getDecimals() public view returns (uint8) {... */\n    tag_11:\n      callvalue\n      dup1\n      iszero\n      tag_53\n      jumpi\n      0x00\n      dup1\n      revert\n    tag_53:\n      pop\n      tag_54\n      tag_55\n      jump\t// in\n    tag_54:\n      mload(0x40)\n      tag_56\n      swap2\n      swap1\n      tag_57\n      jump\t// in\n    tag_56:\n      mload(0x40)\n      dup1\n      swap2\n      sub\n      swap1\n      return\n        /* \"src/FundMe.sol\":5935:6088  function getAddressToAmountFunded(address fundingAddress) public view returns (uint256) {... */\n    tag_17:\n        /* \"src/FundMe.sol\":6014:6021  uint256 */\n      0x00\n        /* \"src/FundMe.sol\":6041:6064  s_addressToAmountFunded */\n      0x01\n        /* \"src/FundMe.sol\":6041:6080  s_addressToAmountFunded[fundingAddress] */\n      0x00\n        /* \"src/FundMe.sol\":6065:6079  fundingAddress */\n      dup4\n        /* \"src/FundMe.sol\":6041:6080  s_addressToAmountFunded[fundingAddress] */\n      0xffffffffffffffffffffffffffffffffffffffff\n      and\n      0xffffffffffffffffffffffffffffffffffffffff\n      and\n      dup2\n      mstore\n      0x20\n      add\n      swap1\n      dup2\n      mstore\n      0x20\n      add\n      0x00\n      keccak256\n      sload\n        /* \"src/FundMe.sol\":6034:6080  return s_addressToAmountFunded[fundingAddress] */\n      swap1\n      pop\n        /* \"src/FundMe.sol\":5935:6088  function getAddressToAmountFunded(address fundingAddress) public view returns (uint256) {... */\n      swap2\n      swap1\n      pop\n      jump\t// out\n        /* \"src/FundMe.sol\":6862:6975  function getDescription() public view returns (string memory) {... */\n    tag_22:\n        /* \"src/FundMe.sol\":6909:6922  string memory */\n      0x60\n        /* \"src/FundMe.sol\":6942:6953  s_priceFeed */\n      0x02\n      0x00\n      swap1\n      sload\n      swap1\n      0x0100\n      exp\n      swap1\n      div\n      0xffffffffffffffffffffffffffffffffffffffff\n      and\n        /* \"src/FundMe.sol\":6942:6965  s_priceFeed.description */\n      0xffffffffffffffffffffffffffffffffffffffff\n      and\n      0x7284e416\n        /* \"src/FundMe.sol\":6942:6967  s_priceFeed.description() */\n      mload(0x40)\n      dup2\n      0xffffffff\n      and\n      0xe0\n      shl\n      dup2\n      mstore\n      0x04\n      add\n      0x00\n      mload(0x40)\n      dup1\n      dup4\n      sub\n      dup2\n      dup7\n      gas\n      staticcall\n      iszero\n      dup1\n      iszero\n      tag_61\n      jumpi\n      returndatasize\n      0x00\n      dup1\n      returndatacopy\n      revert(0x00, returndatasize)\n    tag_61:\n      pop\n      pop\n      pop\n      pop\n      mload(0x40)\n      returndatasize\n      0x00\n      dup3\n      returndatacopy\n      returndatasize\n      not(0x1f)\n      0x1f\n      dup3\n      add\n      and\n      dup3\n      add\n      dup1\n      0x40\n      mstore\n      pop\n      dup2\n      add\n      swap1\n      tag_62\n      swap2\n      swap1\n      tag_63\n      jump\t// in\n    tag_62:\n        /* \"src/FundMe.sol\":6935:6967  return s_priceFeed.description() */\n      swap1\n      pop\n        /* \"src/FundMe.sol\":6862:6975  function getDescription() public view returns (string memory) {... */\n      swap1\n      jump\t// out\n        /* \"src/FundMe.sol\":3442:4936  function withdraw() public onlyOwner {... */\n    tag_27:\n        /* \"src/FundMe.sol\":2058:2065  i_owner */\n      immutable(\"0x7fe86492ed9171487feeb17b76d71244c5fb104d897816bb03a924e5871f3fa3\")\n        /* \"src/FundMe.sol\":2044:2065  msg.sender != i_owner */\n      0xffffffffffffffffffffffffffffffffffffffff\n      and\n        /* \"src/FundMe.sol\":2044:2054  msg.sender */\n      caller\n        /* \"src/FundMe.sol\":2044:2065  msg.sender != i_owner */\n      0xffffffffffffffffffffffffffffffffffffffff\n      and\n      eq\n        /* \"src/FundMe.sol\":2040:2092  if (msg.sender != i_owner) revert FundMe__NotOwner() */\n      tag_65\n      jumpi\n        /* \"src/FundMe.sol\":2074:2092  FundMe__NotOwner() */\n      mload(0x40)\n      0x579610db00000000000000000000000000000000000000000000000000000000\n      dup2\n      mstore\n      0x04\n      add\n      mload(0x40)\n      dup1\n      swap2\n      sub\n      swap1\n      revert\n        /* \"src/FundMe.sol\":2040:2092  if (msg.sender != i_owner) revert FundMe__NotOwner() */\n    tag_65:\n        /* \"src/FundMe.sol\":3635:3654  uint256 funderIndex */\n      0x00\n        /* \"src/FundMe.sol\":3630:4074  for (uint256 funderIndex = 0; funderIndex < s_funders.length; funderIndex++) {... */\n    tag_67:\n        /* \"src/FundMe.sol\":3674:3683  s_funders */\n      0x00\n        /* \"src/FundMe.sol\":3674:3690  s_funders.length */\n      dup1\n      sload\n      swap1\n      pop\n        /* \"src/FundMe.sol\":3660:3671  funderIndex */\n      dup2\n        /* \"src/FundMe.sol\":3660:3690  funderIndex < s_funders.length */\n      lt\n        /* \"src/FundMe.sol\":3630:4074  for (uint256 funderIndex = 0; funderIndex < s_funders.length; funderIndex++) {... */\n      iszero\n      tag_68\n      jumpi\n        /* \"src/FundMe.sol\":3827:3841  address funder */\n      0x00\n        /* \"src/FundMe.sol\":3844:3853  s_funders */\n      dup1\n        /* \"src/FundMe.sol\":3854:3865  funderIndex */\n      dup3\n        /* \"src/FundMe.sol\":3844:3866  s_funders[funderIndex] */\n      dup2\n      sload\n      dup2\n      lt\n      tag_70\n      jumpi\n      tag_71\n      tag_72\n      jump\t// in\n    tag_71:\n    tag_70:\n      swap1\n      0x00\n      mstore\n      keccak256(0x00, 0x20)\n      add\n      0x00\n      swap1\n      sload\n      swap1\n      0x0100\n      exp\n      swap1\n      div\n      0xffffffffffffffffffffffffffffffffffffffff\n      and\n        /* \"src/FundMe.sol\":3827:3866  address funder = s_funders[funderIndex] */\n      swap1\n      pop\n        /* \"src/FundMe.sol\":4061:4062  0 */\n      0x00\n        /* \"src/FundMe.sol\":4027:4050  s_addressToAmountFunded */\n      0x01\n        /* \"src/FundMe.sol\":4027:4058  s_addressToAmountFunded[funder] */\n      0x00\n        /* \"src/FundMe.sol\":4051:4057  funder */\n      dup4\n        /* \"src/FundMe.sol\":4027:4058  s_addressToAmountFunded[funder] */\n      0xffffffffffffffffffffffffffffffffffffffff\n      and\n      0xffffffffffffffffffffffffffffffffffffffff\n      and\n      dup2\n      mstore\n      0x20\n      add\n      swap1\n      dup2\n      mstore\n      0x20\n      add\n      0x00\n      keccak256\n        /* \"src/FundMe.sol\":4027:4062  s_addressToAmountFunded[funder] = 0 */\n      dup2\n      swap1\n      sstore\n      pop\n        /* \"src/FundMe.sol\":3707:4074  {... */\n      pop\n        /* \"src/FundMe.sol\":3692:3705  funderIndex++ */\n      dup1\n      dup1\n      0x01\n      add\n      swap2\n      pop\n      pop\n        /* \"src/FundMe.sol\":3630:4074  for (uint256 funderIndex = 0; funderIndex < s_funders.length; funderIndex++) {... */\n      jump(tag_67)\n    tag_68:\n      pop\n        /* \"src/FundMe.sol\":4240:4241  0 */\n      0x00\n        /* \"src/FundMe.sol\":4226:4242  new address[](0) */\n      0xffffffffffffffff\n      dup2\n      gt\n      iszero\n      tag_74\n      jumpi\n      tag_75\n      tag_76\n      jump\t// in\n    tag_75:\n    tag_74:\n      mload(0x40)\n      swap1\n      dup1\n      dup3\n      mstore\n      dup1\n      0x20\n      mul\n      0x20\n      add\n      dup3\n      add\n      0x40\n      mstore\n      dup1\n      iszero\n      tag_77\n      jumpi\n      dup2\n      0x20\n      add\n      0x20\n      dup3\n      mul\n      dup1\n      calldatasize\n      dup4\n      calldatacopy\n      dup1\n      dup3\n      add\n      swap2\n      pop\n      pop\n      swap1\n      pop\n    tag_77:\n      pop\n        /* \"src/FundMe.sol\":4214:4223  s_funders */\n      0x00\n        /* \"src/FundMe.sol\":4214:4242  s_funders = new address[](0) */\n      swap1\n      dup1\n      mload\n      swap1\n      0x20\n      add\n      swap1\n      tag_78\n      swap3\n      swap2\n      swap1\n      tag_79\n      jump\t// in\n    tag_78:\n      pop\n        /* \"src/FundMe.sol\":4753:4765  bool success */\n      0x00\n        /* \"src/FundMe.sol\":4770:4777  i_owner */\n      immutable(\"0x7fe86492ed9171487feeb17b76d71244c5fb104d897816bb03a924e5871f3fa3\")\n        /* \"src/FundMe.sol\":4770:4782  i_owner.call */\n      0xffffffffffffffffffffffffffffffffffffffff\n      and\n        /* \"src/FundMe.sol\":4790:4811  address(this).balance */\n      selfbalance\n        /* \"src/FundMe.sol\":4770:4816  i_owner.call{value: address(this).balance}(\"\") */\n      mload(0x40)\n      tag_80\n      swap1\n      tag_81\n      jump\t// in\n    tag_80:\n      0x00\n      mload(0x40)\n      dup1\n      dup4\n      sub\n      dup2\n      dup6\n      dup8\n      gas\n      call\n      swap3\n      pop\n      pop\n      pop\n      returndatasize\n      dup1\n      0x00\n      dup2\n      eq\n      tag_84\n      jumpi\n      mload(0x40)\n      swap2\n      pop\n      and(add(returndatasize, 0x3f), not(0x1f))\n      dup3\n      add\n      0x40\n      mstore\n      returndatasize\n      dup3\n      mstore\n      returndatasize\n      0x00\n      0x20\n      dup5\n      add\n      returndatacopy\n      jump(tag_83)\n    tag_84:\n      0x60\n      swap2\n      pop\n    tag_83:\n      pop\n        /* \"src/FundMe.sol\":4752:4816  (bool success,) = i_owner.call{value: address(this).balance}(\"\") */\n      pop\n      swap1\n      pop\n        /* \"src/FundMe.sol\":4920:4927  success */\n      dup1\n        /* \"src/FundMe.sol\":4912:4928  require(success) */\n      tag_85\n      jumpi\n      0x00\n      dup1\n      revert\n    tag_85:\n        /* \"src/FundMe.sol\":3479:4936  {... */\n      pop\n        /* \"src/FundMe.sol\":3442:4936  function withdraw() public onlyOwner {... */\n      jump\t// out\n        /* \"src/FundMe.sol\":1114:1164  uint256 public constant MINIMUM_USD = 5 * 10 ** 18 */\n    tag_30:\n        /* \"src/FundMe.sol\":1152:1164  5 * 10 ** 18 */\n      0x4563918244f40000\n        /* \"src/FundMe.sol\":1114:1164  uint256 public constant MINIMUM_USD = 5 * 10 ** 18 */\n      dup2\n      jump\t// out\n        /* \"src/FundMe.sol\":6415:6498  function getOwner() public view returns (address) {... */\n    tag_34:\n        /* \"src/FundMe.sol\":6456:6463  address */\n      0x00\n        /* \"src/FundMe.sol\":6483:6490  i_owner */\n      immutable(\"0x7fe86492ed9171487feeb17b76d71244c5fb104d897816bb03a924e5871f3fa3\")\n        /* \"src/FundMe.sol\":6476:6490  return i_owner */\n      swap1\n      pop\n        /* \"src/FundMe.sol\":6415:6498  function getOwner() public view returns (address) {... */\n      swap1\n      jump\t// out\n        /* \"src/FundMe.sol\":6543:6638  function getPriceFeed() public view returns (IAggregator) {... */\n    tag_39:\n        /* \"src/FundMe.sol\":6588:6599  IAggregator */\n      0x00\n        /* \"src/FundMe.sol\":6619:6630  s_priceFeed */\n      0x02\n      0x00\n      swap1\n      sload\n      swap1\n      0x0100\n      exp\n      swap1\n      div\n      0xffffffffffffffffffffffffffffffffffffffff\n      and\n        /* \"src/FundMe.sol\":6612:6630  return s_priceFeed */\n      swap1\n      pop\n        /* \"src/FundMe.sol\":6543:6638  function getPriceFeed() public view returns (IAggregator) {... */\n      swap1\n      jump\t// out\n        /* \"src/FundMe.sol\":2884:3434  function fund() public payable {... */\n    tag_43:\n        /* \"src/FundMe.sol\":1152:1164  5 * 10 ** 18 */\n      0x4563918244f40000\n        /* \"src/FundMe.sol\":2934:2974  msg.value.getConversionRate(s_priceFeed) */\n      tag_89\n        /* \"src/FundMe.sol\":2962:2973  s_priceFeed */\n      0x02\n      0x00\n      swap1\n      sload\n      swap1\n      0x0100\n      exp\n      swap1\n      div\n      0xffffffffffffffffffffffffffffffffffffffff\n      and\n        /* \"src/FundMe.sol\":2934:2943  msg.value */\n      callvalue\n        /* \"src/FundMe.sol\":2934:2961  msg.value.getConversionRate */\n      tag_90\n      swap1\n        /* \"src/FundMe.sol\":2934:2974  msg.value.getConversionRate(s_priceFeed) */\n      swap2\n      swap1\n      0xffffffff\n      and\n      jump\t// in\n    tag_89:\n        /* \"src/FundMe.sol\":2934:2989  msg.value.getConversionRate(s_priceFeed) >= MINIMUM_USD */\n      lt\n      iszero\n        /* \"src/FundMe.sol\":2926:3021  require(msg.value.getConversionRate(s_priceFeed) >= MINIMUM_USD, \"You need to spend more ETH!\") */\n      tag_91\n      jumpi\n      mload(0x40)\n      0x08c379a000000000000000000000000000000000000000000000000000000000\n      dup2\n      mstore\n      0x04\n      add\n      tag_92\n      swap1\n      tag_93\n      jump\t// in\n    tag_92:\n      mload(0x40)\n      dup1\n      swap2\n      sub\n      swap1\n      revert\n    tag_91:\n        /* \"src/FundMe.sol\":3296:3305  msg.value */\n      callvalue\n        /* \"src/FundMe.sol\":3257:3280  s_addressToAmountFunded */\n      0x01\n        /* \"src/FundMe.sol\":3257:3292  s_addressToAmountFunded[msg.sender] */\n      0x00\n        /* \"src/FundMe.sol\":3281:3291  msg.sender */\n      caller\n        /* \"src/FundMe.sol\":3257:3292  s_addressToAmountFunded[msg.sender] */\n      0xffffffffffffffffffffffffffffffffffffffff\n      and\n      0xffffffffffffffffffffffffffffffffffffffff\n      and\n      dup2\n      mstore\n      0x20\n      add\n      swap1\n      dup2\n      mstore\n      0x20\n      add\n      0x00\n      keccak256\n      0x00\n        /* \"src/FundMe.sol\":3257:3305  s_addressToAmountFunded[msg.sender] += msg.value */\n      dup3\n      dup3\n      sload\n      tag_94\n      swap2\n      swap1\n      tag_95\n      jump\t// in\n    tag_94:\n      swap3\n      pop\n      pop\n      dup2\n      swap1\n      sstore\n      pop\n        /* \"src/FundMe.sol\":3400:3409  s_funders */\n      0x00\n        /* \"src/FundMe.sol\":3415:3425  msg.sender */\n      caller\n        /* \"src/FundMe.sol\":3400:3426  s_funders.push(msg.sender) */\n      swap1\n      dup1\n      0x01\n      dup2\n      sload\n      add\n      dup1\n      dup3\n      sstore\n      dup1\n      swap2\n      pop\n      pop\n      0x01\n      swap1\n      sub\n      swap1\n      0x00\n      mstore\n      keccak256(0x00, 0x20)\n      add\n      0x00\n      swap1\n      swap2\n      swap1\n      swap2\n      swap1\n      swap2\n      0x0100\n      exp\n      dup2\n      sload\n      dup2\n      0xffffffffffffffffffffffffffffffffffffffff\n      mul\n      not\n      and\n      swap1\n      dup4\n      0xffffffffffffffffffffffffffffffffffffffff\n      and\n      mul\n      or\n      swap1\n      sstore\n      pop\n        /* \"src/FundMe.sol\":2884:3434  function fund() public payable {... */\n      jump\t// out\n        /* \"src/FundMe.sol\":4944:5671  function cheaperWithdraw() public onlyOwner {... */\n    tag_46:\n        /* \"src/FundMe.sol\":2058:2065  i_owner */\n      immutable(\"0x7fe86492ed9171487feeb17b76d71244c5fb104d897816bb03a924e5871f3fa3\")\n        /* \"src/FundMe.sol\":2044:2065  msg.sender != i_owner */\n      0xffffffffffffffffffffffffffffffffffffffff\n      and\n        /* \"src/FundMe.sol\":2044:2054  msg.sender */\n      caller\n        /* \"src/FundMe.sol\":2044:2065  msg.sender != i_owner */\n      0xffffffffffffffffffffffffffffffffffffffff\n      and\n      eq\n        /* \"src/FundMe.sol\":2040:2092  if (msg.sender != i_owner) revert FundMe__NotOwner() */\n      tag_98\n      jumpi\n        /* \"src/FundMe.sol\":2074:2092  FundMe__NotOwner() */\n      mload(0x40)\n      0x579610db00000000000000000000000000000000000000000000000000000000\n      dup2\n      mstore\n      0x04\n      add\n      mload(0x40)\n      dup1\n      swap2\n      sub\n      swap1\n      revert\n        /* \"src/FundMe.sol\":2040:2092  if (msg.sender != i_owner) revert FundMe__NotOwner() */\n    tag_98:\n        /* \"src/FundMe.sol\":5174:5198  address[] memory funders */\n      0x00\n        /* \"src/FundMe.sol\":5201:5210  s_funders */\n      dup1\n        /* \"src/FundMe.sol\":5174:5210  address[] memory funders = s_funders */\n      dup1\n      sload\n      dup1\n      0x20\n      mul\n      0x20\n      add\n      mload(0x40)\n      swap1\n      dup2\n      add\n      0x40\n      mstore\n      dup1\n      swap3\n      swap2\n      swap1\n      dup2\n      dup2\n      mstore\n      0x20\n      add\n      dup3\n      dup1\n      sload\n      dup1\n      iszero\n      tag_100\n      jumpi\n      0x20\n      mul\n      dup3\n      add\n      swap2\n      swap1\n      0x00\n      mstore\n      keccak256(0x00, 0x20)\n      swap1\n    tag_101:\n      dup2\n      0x00\n      swap1\n      sload\n      swap1\n      0x0100\n      exp\n      swap1\n      div\n      0xffffffffffffffffffffffffffffffffffffffff\n      and\n      0xffffffffffffffffffffffffffffffffffffffff\n      and\n      dup2\n      mstore\n      0x20\n      add\n      swap1\n      0x01\n      add\n      swap1\n      dup1\n      dup4\n      gt\n      tag_101\n      jumpi\n    tag_100:\n      pop\n      pop\n      pop\n      pop\n      pop\n      swap1\n      pop\n        /* \"src/FundMe.sol\":5274:5293  uint256 funderIndex */\n      0x00\n        /* \"src/FundMe.sol\":5269:5458  for (uint256 funderIndex = 0; funderIndex < funders.length; funderIndex++) {... */\n    tag_102:\n        /* \"src/FundMe.sol\":5313:5320  funders */\n      dup2\n        /* \"src/FundMe.sol\":5313:5327  funders.length */\n      mload\n        /* \"src/FundMe.sol\":5299:5310  funderIndex */\n      dup2\n        /* \"src/FundMe.sol\":5299:5327  funderIndex < funders.length */\n      lt\n        /* \"src/FundMe.sol\":5269:5458  for (uint256 funderIndex = 0; funderIndex < funders.length; funderIndex++) {... */\n      iszero\n      tag_103\n      jumpi\n        /* \"src/FundMe.sol\":5359:5373  address funder */\n      0x00\n        /* \"src/FundMe.sol\":5376:5383  funders */\n      dup3\n        /* \"src/FundMe.sol\":5384:5395  funderIndex */\n      dup3\n        /* \"src/FundMe.sol\":5376:5396  funders[funderIndex] */\n      dup2\n      mload\n      dup2\n      lt\n      tag_105\n      jumpi\n      tag_106\n      tag_72\n      jump\t// in\n    tag_106:\n    tag_105:\n      0x20\n      mul\n      0x20\n      add\n      add\n      mload\n        /* \"src/FundMe.sol\":5359:5396  address funder = funders[funderIndex] */\n      swap1\n      pop\n        /* \"src/FundMe.sol\":5445:5446  0 */\n      0x00\n        /* \"src/FundMe.sol\":5411:5434  s_addressToAmountFunded */\n      0x01\n        /* \"src/FundMe.sol\":5411:5442  s_addressToAmountFunded[funder] */\n      0x00\n        /* \"src/FundMe.sol\":5435:5441  funder */\n      dup4\n        /* \"src/FundMe.sol\":5411:5442  s_addressToAmountFunded[funder] */\n      0xffffffffffffffffffffffffffffffffffffffff\n      and\n      0xffffffffffffffffffffffffffffffffffffffff\n      and\n      dup2\n      mstore\n      0x20\n      add\n      swap1\n      dup2\n      mstore\n      0x20\n      add\n      0x00\n      keccak256\n        /* \"src/FundMe.sol\":5411:5446  s_addressToAmountFunded[funder] = 0 */\n      dup2\n      swap1\n      sstore\n      pop\n        /* \"src/FundMe.sol\":5344:5458  {... */\n      pop\n        /* \"src/FundMe.sol\":5329:5342  funderIndex++ */\n      dup1\n      dup1\n      0x01\n      add\n      swap2\n      pop\n      pop\n        /* \"src/FundMe.sol\":5269:5458  for (uint256 funderIndex = 0; funderIndex < funders.length; funderIndex++) {... */\n      jump(tag_102)\n    tag_103:\n      pop\n        /* \"src/FundMe.sol\":5494:5495  0 */\n      0x00\n        /* \"src/FundMe.sol\":5480:5496  new address[](0) */\n      0xffffffffffffffff\n      dup2\n      gt\n      iszero\n      tag_107\n      jumpi\n      tag_108\n      tag_76\n      jump\t// in\n    tag_108:\n    tag_107:\n      mload(0x40)\n      swap1\n      dup1\n      dup3\n      mstore\n      dup1\n      0x20\n      mul\n      0x20\n      add\n      dup3\n      add\n      0x40\n      mstore\n      dup1\n      iszero\n      tag_109\n      jumpi\n      dup2\n      0x20\n      add\n      0x20\n      dup3\n      mul\n      dup1\n      calldatasize\n      dup4\n      calldatacopy\n      dup1\n      dup3\n      add\n      swap2\n      pop\n      pop\n      swap1\n      pop\n    tag_109:\n      pop\n        /* \"src/FundMe.sol\":5468:5477  s_funders */\n      0x00\n        /* \"src/FundMe.sol\":5468:5496  s_funders = new address[](0) */\n      swap1\n      dup1\n      mload\n      swap1\n      0x20\n      add\n      swap1\n      tag_110\n      swap3\n      swap2\n      swap1\n      tag_79\n      jump\t// in\n    tag_110:\n      pop\n        /* \"src/FundMe.sol\":5573:5585  bool success */\n      0x00\n        /* \"src/FundMe.sol\":5590:5597  i_owner */\n      immutable(\"0x7fe86492ed9171487feeb17b76d71244c5fb104d897816bb03a924e5871f3fa3\")\n        /* \"src/FundMe.sol\":5590:5602  i_owner.call */\n      0xffffffffffffffffffffffffffffffffffffffff\n      and\n        /* \"src/FundMe.sol\":5610:5631  address(this).balance */\n      selfbalance\n        /* \"src/FundMe.sol\":5590:5636  i_owner.call{value: address(this).balance}(\"\") */\n      mload(0x40)\n      tag_111\n      swap1\n      tag_81\n      jump\t// in\n    tag_111:\n      0x00\n      mload(0x40)\n      dup1\n      dup4\n      sub\n      dup2\n      dup6\n      dup8\n      gas\n      call\n      swap3\n      pop\n      pop\n      pop\n      returndatasize\n      dup1\n      0x00\n      dup2\n      eq\n      tag_114\n      jumpi\n      mload(0x40)\n      swap2\n      pop\n      and(add(returndatasize, 0x3f), not(0x1f))\n      dup3\n      add\n      0x40\n      mstore\n      returndatasize\n      dup3\n      mstore\n      returndatasize\n      0x00\n      0x20\n      dup5\n      add\n      returndatacopy\n      jump(tag_113)\n    tag_114:\n      0x60\n      swap2\n      pop\n    tag_113:\n      pop\n        /* \"src/FundMe.sol\":5572:5636  (bool success,) = i_owner.call{value: address(this).balance}(\"\") */\n      pop\n      swap1\n      pop\n        /* \"src/FundMe.sol\":5655:5662  success */\n      dup1\n        /* \"src/FundMe.sol\":5647:5663  require(success) */\n      tag_115\n      jumpi\n      0x00\n      dup1\n      revert\n    tag_115:\n        /* \"src/FundMe.sol\":4988:5671  {... */\n      pop\n      pop\n        /* \"src/FundMe.sol\":4944:5671  function cheaperWithdraw() public onlyOwner {... */\n      jump\t// out\n        /* \"src/FundMe.sol\":6253:6359  function getFunder(uint256 index) public view returns (address) {... */\n    tag_51:\n        /* \"src/FundMe.sol\":6308:6315  address */\n      0x00\n        /* \"src/FundMe.sol\":6335:6344  s_funders */\n      dup1\n        /* \"src/FundMe.sol\":6345:6350  index */\n      dup3\n        /* \"src/FundMe.sol\":6335:6351  s_funders[index] */\n      dup2\n      sload\n      dup2\n      lt\n      tag_117\n      jumpi\n      tag_118\n      tag_72\n      jump\t// in\n    tag_118:\n    tag_117:\n      swap1\n      0x00\n      mstore\n      keccak256(0x00, 0x20)\n      add\n      0x00\n      swap1\n      sload\n      swap1\n      0x0100\n      exp\n      swap1\n      div\n      0xffffffffffffffffffffffffffffffffffffffff\n      and\n        /* \"src/FundMe.sol\":6328:6351  return s_funders[index] */\n      swap1\n      pop\n        /* \"src/FundMe.sol\":6253:6359  function getFunder(uint256 index) public view returns (address) {... */\n      swap2\n      swap1\n      pop\n      jump\t// out\n        /* \"src/FundMe.sol\":6699:6798  function getDecimals() public view returns (uint8) {... */\n    tag_55:\n        /* \"src/FundMe.sol\":6743:6748  uint8 */\n      0x00\n        /* \"src/FundMe.sol\":6768:6779  s_priceFeed */\n      0x02\n      0x00\n      swap1\n      sload\n      swap1\n      0x0100\n      exp\n      swap1\n      div\n      0xffffffffffffffffffffffffffffffffffffffff\n      and\n        /* \"src/FundMe.sol\":6768:6788  s_priceFeed.decimals */\n      0xffffffffffffffffffffffffffffffffffffffff\n      and\n      0x313ce567\n        /* \"src/FundMe.sol\":6768:6790  s_priceFeed.decimals() */\n      mload(0x40)\n      dup2\n      0xffffffff\n      and\n      0xe0\n      shl\n      dup2\n      mstore\n      0x04\n      add\n      0x20\n      mload(0x40)\n      dup1\n      dup4\n      sub\n      dup2\n      dup7\n      gas\n      staticcall\n      iszero\n      dup1\n      iszero\n      tag_122\n      jumpi\n      returndatasize\n      0x00\n      dup1\n      returndatacopy\n      revert(0x00, returndatasize)\n    tag_122:\n      pop\n      pop\n      pop\n      pop\n      mload(0x40)\n      returndatasize\n      not(0x1f)\n      0x1f\n      dup3\n      add\n      and\n      dup3\n      add\n      dup1\n      0x40\n      mstore\n      pop\n      dup2\n      add\n      swap1\n      tag_123\n      swap2\n      swap1\n      tag_124\n      jump\t// in\n    tag_123:\n        /* \"src/FundMe.sol\":6761:6790  return s_priceFeed.decimals() */\n      swap1\n      pop\n        /* \"src/FundMe.sol\":6699:6798  function getDecimals() public view returns (uint8) {... */\n      swap1\n      jump\t// out\n        /* \"src/PriceConverter.sol\":1123:1939  function getConversionRate(uint256 ethAmount, IAggregator priceFeed) internal view returns (uint256) {... */\n    tag_90:\n        /* \"src/PriceConverter.sol\":1215:1222  uint256 */\n      0x00\n        /* \"src/PriceConverter.sol\":1321:1337  uint256 ethPrice */\n      dup1\n        /* \"src/PriceConverter.sol\":1340:1359  getPrice(priceFeed) */\n      tag_126\n        /* \"src/PriceConverter.sol\":1349:1358  priceFeed */\n      dup4\n        /* \"src/PriceConverter.sol\":1340:1348  getPrice */\n      tag_127\n        /* \"src/PriceConverter.sol\":1340:1359  getPrice(priceFeed) */\n      jump\t// in\n    tag_126:\n        /* \"src/PriceConverter.sol\":1321:1359  uint256 ethPrice = getPrice(priceFeed) */\n      swap1\n      pop\n        /* \"src/PriceConverter.sol\":1678:1700  uint256 ethAmountInUsd */\n      0x00\n        /* \"src/PriceConverter.sol\":1728:1747  1000000000000000000 */\n      0x0de0b6b3a7640000\n        /* \"src/PriceConverter.sol\":1715:1724  ethAmount */\n      dup6\n        /* \"src/PriceConverter.sol\":1704:1712  ethPrice */\n      dup4\n        /* \"src/PriceConverter.sol\":1704:1724  ethPrice * ethAmount */\n      tag_128\n      swap2\n      swap1\n      tag_129\n      jump\t// in\n    tag_128:\n        /* \"src/PriceConverter.sol\":1703:1747  (ethPrice * ethAmount) / 1000000000000000000 */\n      tag_130\n      swap2\n      swap1\n      tag_131\n      jump\t// in\n    tag_130:\n        /* \"src/PriceConverter.sol\":1678:1747  uint256 ethAmountInUsd = (ethPrice * ethAmount) / 1000000000000000000 */\n      swap1\n      pop\n        /* \"src/PriceConverter.sol\":1917:1931  ethAmountInUsd */\n      dup1\n        /* \"src/PriceConverter.sol\":1910:1931  return ethAmountInUsd */\n      swap3\n      pop\n      pop\n      pop\n        /* \"src/PriceConverter.sol\":1123:1939  function getConversionRate(uint256 ethAmount, IAggregator priceFeed) internal view returns (uint256) {... */\n      swap3\n      swap2\n      pop\n      pop\n      jump\t// out\n        /* \"src/PriceConverter.sol\":402:787  function getPrice(IAggregator priceFeed) internal view returns (uint256) {... */\n    tag_127:\n        /* \"src/PriceConverter.sol\":466:473  uint256 */\n      0x00\n        /* \"src/PriceConverter.sol\":550:563  int256 answer */\n      dup1\n        /* \"src/PriceConverter.sol\":570:579  priceFeed */\n      dup3\n        /* \"src/PriceConverter.sol\":570:595  priceFeed.latestRoundData */\n      0xffffffffffffffffffffffffffffffffffffffff\n      and\n      0xfeaf968c\n        /* \"src/PriceConverter.sol\":570:597  priceFeed.latestRoundData() */\n      mload(0x40)\n      dup2\n      0xffffffff\n      and\n      0xe0\n      shl\n      dup2\n      mstore\n      0x04\n      add\n      0xa0\n      mload(0x40)\n      dup1\n      dup4\n      sub\n      dup2\n      dup7\n      gas\n      staticcall\n      iszero\n      dup1\n      iszero\n      tag_134\n      jumpi\n      returndatasize\n      0x00\n      dup1\n      returndatacopy\n      revert(0x00, returndatasize)\n    tag_134:\n      pop\n      pop\n      pop\n      pop\n      mload(0x40)\n      returndatasize\n      not(0x1f)\n      0x1f\n      dup3\n      add\n      and\n      dup3\n      add\n      dup1\n      0x40\n      mstore\n      pop\n      dup2\n      add\n      swap1\n      tag_135\n      swap2\n      swap1\n      tag_136\n      jump\t// in\n    tag_135:\n        /* \"src/PriceConverter.sol\":547:597  (, int256 answer,,,) = priceFeed.latestRoundData() */\n      pop\n      pop\n      pop\n      swap2\n      pop\n      pop\n        /* \"src/PriceConverter.sol\":767:778  10000000000 */\n      0x02540be400\n        /* \"src/PriceConverter.sol\":758:764  answer */\n      dup2\n        /* \"src/PriceConverter.sol\":758:778  answer * 10000000000 */\n      tag_137\n      swap2\n      swap1\n      tag_138\n      jump\t// in\n    tag_137:\n        /* \"src/PriceConverter.sol\":743:779  return uint256(answer * 10000000000) */\n      swap2\n      pop\n      pop\n        /* \"src/PriceConverter.sol\":402:787  function getPrice(IAggregator priceFeed) internal view returns (uint256) {... */\n      swap2\n      swap1\n      pop\n      jump\t// out\n    tag_79:\n      dup3\n      dup1\n      sload\n      dup3\n      dup3\n      sstore\n      swap1\n      0x00\n      mstore\n      keccak256(0x00, 0x20)\n      swap1\n      dup2\n      add\n      swap3\n      dup3\n      iszero\n      tag_139\n      jumpi\n      swap2\n      0x20\n      mul\n      dup3\n      add\n    tag_140:\n      dup3\n      dup2\n      gt\n      iszero\n      tag_141\n      jumpi\n      dup3\n      mload\n      dup3\n      exp(0x0100, 0x00)\n      dup2\n      sload\n      dup2\n      0xffffffffffffffffffffffffffffffffffffffff\n      mul\n      not\n      and\n      swap1\n      dup4\n      0xffffffffffffffffffffffffffffffffffffffff\n      and\n      mul\n      or\n      swap1\n      sstore\n      pop\n      swap2\n      0x20\n      add\n      swap2\n      swap1\n      0x01\n      add\n      swap1\n      jump(tag_140)\n    tag_141:\n    tag_139:\n      pop\n      swap1\n      pop\n      tag_142\n      swap2\n      swap1\n      tag_143\n      jump\t// in\n    tag_142:\n      pop\n      swap1\n      jump\t// out\n    tag_143:\n    tag_144:\n      dup1\n      dup3\n      gt\n      iszero\n      tag_145\n      jumpi\n      0x00\n      dup2\n      0x00\n      swap1\n      sstore\n      pop\n      0x01\n      add\n      jump(tag_144)\n    tag_145:\n      pop\n      swap1\n      jump\t// out\n        /* \"#utility.yul\":7:82   */\n    tag_146:\n        /* \"#utility.yul\":40:46   */\n      0x00\n        /* \"#utility.yul\":73:75   */\n      0x40\n        /* \"#utility.yul\":67:76   */\n      mload\n        /* \"#utility.yul\":57:76   */\n      swap1\n      pop\n        /* \"#utility.yul\":7:82   */\n      swap1\n      jump\t// out\n        /* \"#utility.yul\":88:205   */\n    tag_147:\n        /* \"#utility.yul\":197:198   */\n      0x00\n        /* \"#utility.yul\":194:195   */\n      dup1\n        /* \"#utility.yul\":187:199   */\n      revert\n        /* \"#utility.yul\":211:328   */\n    tag_148:\n        /* \"#utility.yul\":320:321   */\n      0x00\n        /* \"#utility.yul\":317:318   */\n      dup1\n        /* \"#utility.yul\":310:322   */\n      revert\n        /* \"#utility.yul\":334:460   */\n    tag_149:\n        /* \"#utility.yul\":371:378   */\n      0x00\n        /* \"#utility.yul\":411:453   */\n      0xffffffffffffffffffffffffffffffffffffffff\n        /* \"#utility.yul\":404:409   */\n      dup3\n        /* \"#utility.yul\":400:454   */\n      and\n        /* \"#utility.yul\":389:454   */\n      swap1\n      pop\n        /* \"#utility.yul\":334:460   */\n      swap2\n      swap1\n      pop\n      jump\t// out\n        /* \"#utility.yul\":466:562   */\n    tag_150:\n        /* \"#utility.yul\":503:510   */\n      0x00\n        /* \"#utility.yul\":532:556   */\n      tag_199\n        /* \"#utility.yul\":550:555   */\n      dup3\n        /* \"#utility.yul\":532:556   */\n      tag_149\n      jump\t// in\n    tag_199:\n        /* \"#utility.yul\":521:556   */\n      swap1\n      pop\n        /* \"#utility.yul\":466:562   */\n      swap2\n      swap1\n      pop\n      jump\t// out\n        /* \"#utility.yul\":568:690   */\n    tag_151:\n        /* \"#utility.yul\":641:665   */\n      tag_201\n        /* \"#utility.yul\":659:664   */\n      dup2\n        /* \"#utility.yul\":641:665   */\n      tag_150\n      jump\t// in\n    tag_201:\n        /* \"#utility.yul\":634:639   */\n      dup2\n        /* \"#utility.yul\":631:666   */\n      eq\n        /* \"#utility.yul\":621:684   */\n      tag_202\n      jumpi\n        /* \"#utility.yul\":680:681   */\n      0x00\n        /* \"#utility.yul\":677:678   */\n      dup1\n        /* \"#utility.yul\":670:682   */\n      revert\n        /* \"#utility.yul\":621:684   */\n    tag_202:\n        /* \"#utility.yul\":568:690   */\n      pop\n      jump\t// out\n        /* \"#utility.yul\":696:835   */\n    tag_152:\n        /* \"#utility.yul\":742:747   */\n      0x00\n        /* \"#utility.yul\":780:786   */\n      dup2\n        /* \"#utility.yul\":767:787   */\n      calldataload\n        /* \"#utility.yul\":758:787   */\n      swap1\n      pop\n        /* \"#utility.yul\":796:829   */\n      tag_204\n        /* \"#utility.yul\":823:828   */\n      dup2\n        /* \"#utility.yul\":796:829   */\n      tag_151\n      jump\t// in\n    tag_204:\n        /* \"#utility.yul\":696:835   */\n      swap3\n      swap2\n      pop\n      pop\n      jump\t// out\n        /* \"#utility.yul\":841:1170   */\n    tag_16:\n        /* \"#utility.yul\":900:906   */\n      0x00\n        /* \"#utility.yul\":949:951   */\n      0x20\n        /* \"#utility.yul\":937:946   */\n      dup3\n        /* \"#utility.yul\":928:935   */\n      dup5\n        /* \"#utility.yul\":924:947   */\n      sub\n        /* \"#utility.yul\":920:952   */\n      slt\n        /* \"#utility.yul\":917:1036   */\n      iszero\n      tag_206\n      jumpi\n        /* \"#utility.yul\":955:1034   */\n      tag_207\n      tag_147\n      jump\t// in\n    tag_207:\n        /* \"#utility.yul\":917:1036   */\n    tag_206:\n        /* \"#utility.yul\":1075:1076   */\n      0x00\n        /* \"#utility.yul\":1100:1153   */\n      tag_208\n        /* \"#utility.yul\":1145:1152   */\n      dup5\n        /* \"#utility.yul\":1136:1142   */\n      dup3\n        /* \"#utility.yul\":1125:1134   */\n      dup6\n        /* \"#utility.yul\":1121:1143   */\n      add\n        /* \"#utility.yul\":1100:1153   */\n      tag_152\n      jump\t// in\n    tag_208:\n        /* \"#utility.yul\":1090:1153   */\n      swap2\n      pop\n        /* \"#utility.yul\":1046:1163   */\n      pop\n        /* \"#utility.yul\":841:1170   */\n      swap3\n      swap2\n      pop\n      pop\n      jump\t// out\n        /* \"#utility.yul\":1176:1253   */\n    tag_153:\n        /* \"#utility.yul\":1213:1220   */\n      0x00\n        /* \"#utility.yul\":1242:1247   */\n      dup2\n        /* \"#utility.yul\":1231:1247   */\n      swap1\n      pop\n        /* \"#utility.yul\":1176:1253   */\n      swap2\n      swap1\n      pop\n      jump\t// out\n        /* \"#utility.yul\":1259:1377   */\n    tag_154:\n        /* \"#utility.yul\":1346:1370   */\n      tag_211\n        /* \"#utility.yul\":1364:1369   */\n      dup2\n        /* \"#utility.yul\":1346:1370   */\n      tag_153\n      jump\t// in\n    tag_211:\n        /* \"#utility.yul\":1341:1344   */\n      dup3\n        /* \"#utility.yul\":1334:1371   */\n      mstore\n        /* \"#utility.yul\":1259:1377   */\n      pop\n      pop\n      jump\t// out\n        /* \"#utility.yul\":1383:1605   */\n    tag_19:\n        /* \"#utility.yul\":1476:1480   */\n      0x00\n        /* \"#utility.yul\":1514:1516   */\n      0x20\n        /* \"#utility.yul\":1503:1512   */\n      dup3\n        /* \"#utility.yul\":1499:1517   */\n      add\n        /* \"#utility.yul\":1491:1517   */\n      swap1\n      pop\n        /* \"#utility.yul\":1527:1598   */\n      tag_213\n        /* \"#utility.yul\":1595:1596   */\n      0x00\n        /* \"#utility.yul\":1584:1593   */\n      dup4\n        /* \"#utility.yul\":1580:1597   */\n      add\n        /* \"#utility.yul\":1571:1577   */\n      dup5\n        /* \"#utility.yul\":1527:1598   */\n      tag_154\n      jump\t// in\n    tag_213:\n        /* \"#utility.yul\":1383:1605   */\n      swap3\n      swap2\n      pop\n      pop\n      jump\t// out\n        /* \"#utility.yul\":1611:1710   */\n    tag_155:\n        /* \"#utility.yul\":1663:1669   */\n      0x00\n        /* \"#utility.yul\":1697:1702   */\n      dup2\n        /* \"#utility.yul\":1691:1703   */\n      mload\n        /* \"#utility.yul\":1681:1703   */\n      swap1\n      pop\n        /* \"#utility.yul\":1611:1710   */\n      swap2\n      swap1\n      pop\n      jump\t// out\n        /* \"#utility.yul\":1716:1885   */\n    tag_156:\n        /* \"#utility.yul\":1800:1811   */\n      0x00\n        /* \"#utility.yul\":1834:1840   */\n      dup3\n        /* \"#utility.yul\":1829:1832   */\n      dup3\n        /* \"#utility.yul\":1822:1841   */\n      mstore\n        /* \"#utility.yul\":1874:1878   */\n      0x20\n        /* \"#utility.yul\":1869:1872   */\n      dup3\n        /* \"#utility.yul\":1865:1879   */\n      add\n        /* \"#utility.yul\":1850:1879   */\n      swap1\n      pop\n        /* \"#utility.yul\":1716:1885   */\n      swap3\n      swap2\n      pop\n      pop\n      jump\t// out\n        /* \"#utility.yul\":1891:2030   */\n    tag_157:\n        /* \"#utility.yul\":1980:1986   */\n      dup3\n        /* \"#utility.yul\":1975:1978   */\n      dup2\n        /* \"#utility.yul\":1970:1973   */\n      dup4\n        /* \"#utility.yul\":1964:1987   */\n      mcopy\n        /* \"#utility.yul\":2021:2022   */\n      0x00\n        /* \"#utility.yul\":2012:2018   */\n      dup4\n        /* \"#utility.yul\":2007:2010   */\n      dup4\n        /* \"#utility.yul\":2003:2019   */\n      add\n        /* \"#utility.yul\":1996:2023   */\n      mstore\n        /* \"#utility.yul\":1891:2030   */\n      pop\n      pop\n      pop\n      jump\t// out\n        /* \"#utility.yul\":2036:2138   */\n    tag_158:\n        /* \"#utility.yul\":2077:2083   */\n      0x00\n        /* \"#utility.yul\":2128:2130   */\n      0x1f\n        /* \"#utility.yul\":2124:2131   */\n      not\n        /* \"#utility.yul\":2119:2121   */\n      0x1f\n        /* \"#utility.yul\":2112:2117   */\n      dup4\n        /* \"#utility.yul\":2108:2122   */\n      add\n        /* \"#utility.yul\":2104:2132   */\n      and\n        /* \"#utility.yul\":2094:2132   */\n      swap1\n      pop\n        /* \"#utility.yul\":2036:2138   */\n      swap2\n      swap1\n      pop\n      jump\t// out\n        /* \"#utility.yul\":2144:2521   */\n    tag_159:\n        /* \"#utility.yul\":2232:2235   */\n      0x00\n        /* \"#utility.yul\":2260:2299   */\n      tag_219\n        /* \"#utility.yul\":2293:2298   */\n      dup3\n        /* \"#utility.yul\":2260:2299   */\n      tag_155\n      jump\t// in\n    tag_219:\n        /* \"#utility.yul\":2315:2386   */\n      tag_220\n        /* \"#utility.yul\":2379:2385   */\n      dup2\n        /* \"#utility.yul\":2374:2377   */\n      dup6\n        /* \"#utility.yul\":2315:2386   */\n      tag_156\n      jump\t// in\n    tag_220:\n        /* \"#utility.yul\":2308:2386   */\n      swap4\n      pop\n        /* \"#utility.yul\":2395:2460   */\n      tag_221\n        /* \"#utility.yul\":2453:2459   */\n      dup2\n        /* \"#utility.yul\":2448:2451   */\n      dup6\n        /* \"#utility.yul\":2441:2445   */\n      0x20\n        /* \"#utility.yul\":2434:2439   */\n      dup7\n        /* \"#utility.yul\":2430:2446   */\n      add\n        /* \"#utility.yul\":2395:2460   */\n      tag_157\n      jump\t// in\n    tag_221:\n        /* \"#utility.yul\":2485:2514   */\n      tag_222\n        /* \"#utility.yul\":2507:2513   */\n      dup2\n        /* \"#utility.yul\":2485:2514   */\n      tag_158\n      jump\t// in\n    tag_222:\n        /* \"#utility.yul\":2480:2483   */\n      dup5\n        /* \"#utility.yul\":2476:2515   */\n      add\n        /* \"#utility.yul\":2469:2515   */\n      swap2\n      pop\n        /* \"#utility.yul\":2236:2521   */\n      pop\n        /* \"#utility.yul\":2144:2521   */\n      swap3\n      swap2\n      pop\n      pop\n      jump\t// out\n        /* \"#utility.yul\":2527:2840   */\n    tag_24:\n        /* \"#utility.yul\":2640:2644   */\n      0x00\n        /* \"#utility.yul\":2678:2680   */\n      0x20\n        /* \"#utility.yul\":2667:2676   */\n      dup3\n        /* \"#utility.yul\":2663:2681   */\n      add\n        /* \"#utility.yul\":2655:2681   */\n      swap1\n      pop\n        /* \"#utility.yul\":2727:2736   */\n      dup2\n        /* \"#utility.yul\":2721:2725   */\n      dup2\n        /* \"#utility.yul\":2717:2737   */\n      sub\n        /* \"#utility.yul\":2713:2714   */\n      0x00\n        /* \"#utility.yul\":2702:2711   */\n      dup4\n        /* \"#utility.yul\":2698:2715   */\n      add\n        /* \"#utility.yul\":2691:2738   */\n      mstore\n        /* \"#utility.yul\":2755:2833   */\n      tag_224\n        /* \"#utility.yul\":2828:2832   */\n      dup2\n        /* \"#utility.yul\":2819:2825   */\n      dup5\n        /* \"#utility.yul\":2755:2833   */\n      tag_159\n      jump\t// in\n    tag_224:\n        /* \"#utility.yul\":2747:2833   */\n      swap1\n      pop\n        /* \"#utility.yul\":2527:2840   */\n      swap3\n      swap2\n      pop\n      pop\n      jump\t// out\n        /* \"#utility.yul\":2846:2964   */\n    tag_160:\n        /* \"#utility.yul\":2933:2957   */\n      tag_226\n        /* \"#utility.yul\":2951:2956   */\n      dup2\n        /* \"#utility.yul\":2933:2957   */\n      tag_150\n      jump\t// in\n    tag_226:\n        /* \"#utility.yul\":2928:2931   */\n      dup3\n        /* \"#utility.yul\":2921:2958   */\n      mstore\n        /* \"#utility.yul\":2846:2964   */\n      pop\n      pop\n      jump\t// out\n        /* \"#utility.yul\":2970:3192   */\n    tag_36:\n        /* \"#utility.yul\":3063:3067   */\n      0x00\n        /* \"#utility.yul\":3101:3103   */\n      0x20\n        /* \"#utility.yul\":3090:3099   */\n      dup3\n        /* \"#utility.yul\":3086:3104   */\n      add\n        /* \"#utility.yul\":3078:3104   */\n      swap1\n      pop\n        /* \"#utility.yul\":3114:3185   */\n      tag_228\n        /* \"#utility.yul\":3182:3183   */\n      0x00\n        /* \"#utility.yul\":3171:3180   */\n      dup4\n        /* \"#utility.yul\":3167:3184   */\n      add\n        /* \"#utility.yul\":3158:3164   */\n      dup5\n        /* \"#utility.yul\":3114:3185   */\n      tag_160\n      jump\t// in\n    tag_228:\n        /* \"#utility.yul\":2970:3192   */\n      swap3\n      swap2\n      pop\n      pop\n      jump\t// out\n        /* \"#utility.yul\":3198:3258   */\n    tag_161:\n        /* \"#utility.yul\":3226:3229   */\n      0x00\n        /* \"#utility.yul\":3247:3252   */\n      dup2\n        /* \"#utility.yul\":3240:3252   */\n      swap1\n      pop\n        /* \"#utility.yul\":3198:3258   */\n      swap2\n      swap1\n      pop\n      jump\t// out\n        /* \"#utility.yul\":3264:3406   */\n    tag_162:\n        /* \"#utility.yul\":3314:3323   */\n      0x00\n        /* \"#utility.yul\":3347:3400   */\n      tag_231\n        /* \"#utility.yul\":3365:3399   */\n      tag_232\n        /* \"#utility.yul\":3374:3398   */\n      tag_233\n        /* \"#utility.yul\":3392:3397   */\n      dup5\n        /* \"#utility.yul\":3374:3398   */\n      tag_149\n      jump\t// in\n    tag_233:\n        /* \"#utility.yul\":3365:3399   */\n      tag_161\n      jump\t// in\n    tag_232:\n        /* \"#utility.yul\":3347:3400   */\n      tag_149\n      jump\t// in\n    tag_231:\n        /* \"#utility.yul\":3334:3400   */\n      swap1\n      pop\n        /* \"#utility.yul\":3264:3406   */\n      swap2\n      swap1\n      pop\n      jump\t// out\n        /* \"#utility.yul\":3412:3538   */\n    tag_163:\n        /* \"#utility.yul\":3462:3471   */\n      0x00\n        /* \"#utility.yul\":3495:3532   */\n      tag_235\n        /* \"#utility.yul\":3526:3531   */\n      dup3\n        /* \"#utility.yul\":3495:3532   */\n      tag_162\n      jump\t// in\n    tag_235:\n        /* \"#utility.yul\":3482:3532   */\n      swap1\n      pop\n        /* \"#utility.yul\":3412:3538   */\n      swap2\n      swap1\n      pop\n      jump\t// out\n        /* \"#utility.yul\":3544:3688   */\n    tag_164:\n        /* \"#utility.yul\":3612:3621   */\n      0x00\n        /* \"#utility.yul\":3645:3682   */\n      tag_237\n        /* \"#utility.yul\":3676:3681   */\n      dup3\n        /* \"#utility.yul\":3645:3682   */\n      tag_163\n      jump\t// in\n    tag_237:\n        /* \"#utility.yul\":3632:3682   */\n      swap1\n      pop\n        /* \"#utility.yul\":3544:3688   */\n      swap2\n      swap1\n      pop\n      jump\t// out\n        /* \"#utility.yul\":3694:3861   */\n    tag_165:\n        /* \"#utility.yul\":3799:3854   */\n      tag_239\n        /* \"#utility.yul\":3848:3853   */\n      dup2\n        /* \"#utility.yul\":3799:3854   */\n      tag_164\n      jump\t// in\n    tag_239:\n        /* \"#utility.yul\":3794:3797   */\n      dup3\n        /* \"#utility.yul\":3787:3855   */\n      mstore\n        /* \"#utility.yul\":3694:3861   */\n      pop\n      pop\n      jump\t// out\n        /* \"#utility.yul\":3867:4125   */\n    tag_41:\n        /* \"#utility.yul\":3978:3982   */\n      0x00\n        /* \"#utility.yul\":4016:4018   */\n      0x20\n        /* \"#utility.yul\":4005:4014   */\n      dup3\n        /* \"#utility.yul\":4001:4019   */\n      add\n        /* \"#utility.yul\":3993:4019   */\n      swap1\n      pop\n        /* \"#utility.yul\":4029:4118   */\n      tag_241\n        /* \"#utility.yul\":4115:4116   */\n      0x00\n        /* \"#utility.yul\":4104:4113   */\n      dup4\n        /* \"#utility.yul\":4100:4117   */\n      add\n        /* \"#utility.yul\":4091:4097   */\n      dup5\n        /* \"#utility.yul\":4029:4118   */\n      tag_165\n      jump\t// in\n    tag_241:\n        /* \"#utility.yul\":3867:4125   */\n      swap3\n      swap2\n      pop\n      pop\n      jump\t// out\n        /* \"#utility.yul\":4131:4253   */\n    tag_166:\n        /* \"#utility.yul\":4204:4228   */\n      tag_243\n        /* \"#utility.yul\":4222:4227   */\n      dup2\n        /* \"#utility.yul\":4204:4228   */\n      tag_153\n      jump\t// in\n    tag_243:\n        /* \"#utility.yul\":4197:4202   */\n      dup2\n        /* \"#utility.yul\":4194:4229   */\n      eq\n        /* \"#utility.yul\":4184:4247   */\n      tag_244\n      jumpi\n        /* \"#utility.yul\":4243:4244   */\n      0x00\n        /* \"#utility.yul\":4240:4241   */\n      dup1\n        /* \"#utility.yul\":4233:4245   */\n      revert\n        /* \"#utility.yul\":4184:4247   */\n    tag_244:\n        /* \"#utility.yul\":4131:4253   */\n      pop\n      jump\t// out\n        /* \"#utility.yul\":4259:4398   */\n    tag_167:\n        /* \"#utility.yul\":4305:4310   */\n      0x00\n        /* \"#utility.yul\":4343:4349   */\n      dup2\n        /* \"#utility.yul\":4330:4350   */\n      calldataload\n        /* \"#utility.yul\":4321:4350   */\n      swap1\n      pop\n        /* \"#utility.yul\":4359:4392   */\n      tag_246\n        /* \"#utility.yul\":4386:4391   */\n      dup2\n        /* \"#utility.yul\":4359:4392   */\n      tag_166\n      jump\t// in\n    tag_246:\n        /* \"#utility.yul\":4259:4398   */\n      swap3\n      swap2\n      pop\n      pop\n      jump\t// out\n        /* \"#utility.yul\":4404:4733   */\n    tag_50:\n        /* \"#utility.yul\":4463:4469   */\n      0x00\n        /* \"#utility.yul\":4512:4514   */\n      0x20\n        /* \"#utility.yul\":4500:4509   */\n      dup3\n        /* \"#utility.yul\":4491:4498   */\n      dup5\n        /* \"#utility.yul\":4487:4510   */\n      sub\n        /* \"#utility.yul\":4483:4515   */\n      slt\n        /* \"#utility.yul\":4480:4599   */\n      iszero\n      tag_248\n      jumpi\n        /* \"#utility.yul\":4518:4597   */\n      tag_249\n      tag_147\n      jump\t// in\n    tag_249:\n        /* \"#utility.yul\":4480:4599   */\n    tag_248:\n        /* \"#utility.yul\":4638:4639   */\n      0x00\n        /* \"#utility.yul\":4663:4716   */\n      tag_250\n        /* \"#utility.yul\":4708:4715   */\n      dup5\n        /* \"#utility.yul\":4699:4705   */\n      dup3\n        /* \"#utility.yul\":4688:4697   */\n      dup6\n        /* \"#utility.yul\":4684:4706   */\n      add\n        /* \"#utility.yul\":4663:4716   */\n      tag_167\n      jump\t// in\n    tag_250:\n        /* \"#utility.yul\":4653:4716   */\n      swap2\n      pop\n        /* \"#utility.yul\":4609:4726   */\n      pop\n        /* \"#utility.yul\":4404:4733   */\n      swap3\n      swap2\n      pop\n      pop\n      jump\t// out\n        /* \"#utility.yul\":4739:4825   */\n    tag_168:\n        /* \"#utility.yul\":4774:4781   */\n      0x00\n        /* \"#utility.yul\":4814:4818   */\n      0xff\n        /* \"#utility.yul\":4807:4812   */\n      dup3\n        /* \"#utility.yul\":4803:4819   */\n      and\n        /* \"#utility.yul\":4792:4819   */\n      swap1\n      pop\n        /* \"#utility.yul\":4739:4825   */\n      swap2\n      swap1\n      pop\n      jump\t// out\n        /* \"#utility.yul\":4831:4943   */\n    tag_169:\n        /* \"#utility.yul\":4914:4936   */\n      tag_253\n        /* \"#utility.yul\":4930:4935   */\n      dup2\n        /* \"#utility.yul\":4914:4936   */\n      tag_168\n      jump\t// in\n    tag_253:\n        /* \"#utility.yul\":4909:4912   */\n      dup3\n        /* \"#utility.yul\":4902:4937   */\n      mstore\n        /* \"#utility.yul\":4831:4943   */\n      pop\n      pop\n      jump\t// out\n        /* \"#utility.yul\":4949:5163   */\n    tag_57:\n        /* \"#utility.yul\":5038:5042   */\n      0x00\n        /* \"#utility.yul\":5076:5078   */\n      0x20\n        /* \"#utility.yul\":5065:5074   */\n      dup3\n        /* \"#utility.yul\":5061:5079   */\n      add\n        /* \"#utility.yul\":5053:5079   */\n      swap1\n      pop\n        /* \"#utility.yul\":5089:5156   */\n      tag_255\n        /* \"#utility.yul\":5153:5154   */\n      0x00\n        /* \"#utility.yul\":5142:5151   */\n      dup4\n        /* \"#utility.yul\":5138:5155   */\n      add\n        /* \"#utility.yul\":5129:5135   */\n      dup5\n        /* \"#utility.yul\":5089:5156   */\n      tag_169\n      jump\t// in\n    tag_255:\n        /* \"#utility.yul\":4949:5163   */\n      swap3\n      swap2\n      pop\n      pop\n      jump\t// out\n        /* \"#utility.yul\":5169:5286   */\n    tag_170:\n        /* \"#utility.yul\":5278:5279   */\n      0x00\n        /* \"#utility.yul\":5275:5276   */\n      dup1\n        /* \"#utility.yul\":5268:5280   */\n      revert\n        /* \"#utility.yul\":5292:5409   */\n    tag_171:\n        /* \"#utility.yul\":5401:5402   */\n      0x00\n        /* \"#utility.yul\":5398:5399   */\n      dup1\n        /* \"#utility.yul\":5391:5403   */\n      revert\n        /* \"#utility.yul\":5415:5595   */\n    tag_76:\n        /* \"#utility.yul\":5463:5540   */\n      0x4e487b7100000000000000000000000000000000000000000000000000000000\n        /* \"#utility.yul\":5460:5461   */\n      0x00\n        /* \"#utility.yul\":5453:5541   */\n      mstore\n        /* \"#utility.yul\":5560:5564   */\n      0x41\n        /* \"#utility.yul\":5557:5558   */\n      0x04\n        /* \"#utility.yul\":5550:5565   */\n      mstore\n        /* \"#utility.yul\":5584:5588   */\n      0x24\n        /* \"#utility.yul\":5581:5582   */\n      0x00\n        /* \"#utility.yul\":5574:5589   */\n      revert\n        /* \"#utility.yul\":5601:5882   */\n    tag_172:\n        /* \"#utility.yul\":5684:5711   */\n      tag_260\n        /* \"#utility.yul\":5706:5710   */\n      dup3\n        /* \"#utility.yul\":5684:5711   */\n      tag_158\n      jump\t// in\n    tag_260:\n        /* \"#utility.yul\":5676:5682   */\n      dup2\n        /* \"#utility.yul\":5672:5712   */\n      add\n        /* \"#utility.yul\":5814:5820   */\n      dup2\n        /* \"#utility.yul\":5802:5812   */\n      dup2\n        /* \"#utility.yul\":5799:5821   */\n      lt\n        /* \"#utility.yul\":5778:5796   */\n      0xffffffffffffffff\n        /* \"#utility.yul\":5766:5776   */\n      dup3\n        /* \"#utility.yul\":5763:5797   */\n      gt\n        /* \"#utility.yul\":5760:5822   */\n      or\n        /* \"#utility.yul\":5757:5845   */\n      iszero\n      tag_261\n      jumpi\n        /* \"#utility.yul\":5825:5843   */\n      tag_262\n      tag_76\n      jump\t// in\n    tag_262:\n        /* \"#utility.yul\":5757:5845   */\n    tag_261:\n        /* \"#utility.yul\":5865:5875   */\n      dup1\n        /* \"#utility.yul\":5861:5863   */\n      0x40\n        /* \"#utility.yul\":5854:5876   */\n      mstore\n        /* \"#utility.yul\":5644:5882   */\n      pop\n        /* \"#utility.yul\":5601:5882   */\n      pop\n      pop\n      jump\t// out\n        /* \"#utility.yul\":5888:6017   */\n    tag_173:\n        /* \"#utility.yul\":5922:5928   */\n      0x00\n        /* \"#utility.yul\":5949:5969   */\n      tag_264\n      tag_146\n      jump\t// in\n    tag_264:\n        /* \"#utility.yul\":5939:5969   */\n      swap1\n      pop\n        /* \"#utility.yul\":5978:6011   */\n      tag_265\n        /* \"#utility.yul\":6006:6010   */\n      dup3\n        /* \"#utility.yul\":5998:6004   */\n      dup3\n        /* \"#utility.yul\":5978:6011   */\n      tag_172\n      jump\t// in\n    tag_265:\n        /* \"#utility.yul\":5888:6017   */\n      swap2\n      swap1\n      pop\n      jump\t// out\n        /* \"#utility.yul\":6023:6331   */\n    tag_174:\n        /* \"#utility.yul\":6085:6089   */\n      0x00\n        /* \"#utility.yul\":6175:6193   */\n      0xffffffffffffffff\n        /* \"#utility.yul\":6167:6173   */\n      dup3\n        /* \"#utility.yul\":6164:6194   */\n      gt\n        /* \"#utility.yul\":6161:6217   */\n      iszero\n      tag_267\n      jumpi\n        /* \"#utility.yul\":6197:6215   */\n      tag_268\n      tag_76\n      jump\t// in\n    tag_268:\n        /* \"#utility.yul\":6161:6217   */\n    tag_267:\n        /* \"#utility.yul\":6235:6264   */\n      tag_269\n        /* \"#utility.yul\":6257:6263   */\n      dup3\n        /* \"#utility.yul\":6235:6264   */\n      tag_158\n      jump\t// in\n    tag_269:\n        /* \"#utility.yul\":6227:6264   */\n      swap1\n      pop\n        /* \"#utility.yul\":6319:6323   */\n      0x20\n        /* \"#utility.yul\":6313:6317   */\n      dup2\n        /* \"#utility.yul\":6309:6324   */\n      add\n        /* \"#utility.yul\":6301:6324   */\n      swap1\n      pop\n        /* \"#utility.yul\":6023:6331   */\n      swap2\n      swap1\n      pop\n      jump\t// out\n        /* \"#utility.yul\":6337:6771   */\n    tag_175:\n        /* \"#utility.yul\":6426:6431   */\n      0x00\n        /* \"#utility.yul\":6451:6517   */\n      tag_271\n        /* \"#utility.yul\":6467:6516   */\n      tag_272\n        /* \"#utility.yul\":6509:6515   */\n      dup5\n        /* \"#utility.yul\":6467:6516   */\n      tag_174\n      jump\t// in\n    tag_272:\n        /* \"#utility.yul\":6451:6517   */\n      tag_173\n      jump\t// in\n    tag_271:\n        /* \"#utility.yul\":6442:6517   */\n      swap1\n      pop\n        /* \"#utility.yul\":6540:6546   */\n      dup3\n        /* \"#utility.yul\":6533:6538   */\n      dup2\n        /* \"#utility.yul\":6526:6547   */\n      mstore\n        /* \"#utility.yul\":6578:6582   */\n      0x20\n        /* \"#utility.yul\":6571:6576   */\n      dup2\n        /* \"#utility.yul\":6567:6583   */\n      add\n        /* \"#utility.yul\":6616:6619   */\n      dup5\n        /* \"#utility.yul\":6607:6613   */\n      dup5\n        /* \"#utility.yul\":6602:6605   */\n      dup5\n        /* \"#utility.yul\":6598:6614   */\n      add\n        /* \"#utility.yul\":6595:6620   */\n      gt\n        /* \"#utility.yul\":6592:6704   */\n      iszero\n      tag_273\n      jumpi\n        /* \"#utility.yul\":6623:6702   */\n      tag_274\n      tag_171\n      jump\t// in\n    tag_274:\n        /* \"#utility.yul\":6592:6704   */\n    tag_273:\n        /* \"#utility.yul\":6713:6765   */\n      tag_275\n        /* \"#utility.yul\":6758:6764   */\n      dup5\n        /* \"#utility.yul\":6753:6756   */\n      dup3\n        /* \"#utility.yul\":6748:6751   */\n      dup6\n        /* \"#utility.yul\":6713:6765   */\n      tag_157\n      jump\t// in\n    tag_275:\n        /* \"#utility.yul\":6432:6771   */\n      pop\n        /* \"#utility.yul\":6337:6771   */\n      swap4\n      swap3\n      pop\n      pop\n      pop\n      jump\t// out\n        /* \"#utility.yul\":6791:7146   */\n    tag_176:\n        /* \"#utility.yul\":6858:6863   */\n      0x00\n        /* \"#utility.yul\":6907:6910   */\n      dup3\n        /* \"#utility.yul\":6900:6904   */\n      0x1f\n        /* \"#utility.yul\":6892:6898   */\n      dup4\n        /* \"#utility.yul\":6888:6905   */\n      add\n        /* \"#utility.yul\":6884:6911   */\n      slt\n        /* \"#utility.yul\":6874:6996   */\n      tag_277\n      jumpi\n        /* \"#utility.yul\":6915:6994   */\n      tag_278\n      tag_170\n      jump\t// in\n    tag_278:\n        /* \"#utility.yul\":6874:6996   */\n    tag_277:\n        /* \"#utility.yul\":7025:7031   */\n      dup2\n        /* \"#utility.yul\":7019:7032   */\n      mload\n        /* \"#utility.yul\":7050:7140   */\n      tag_279\n        /* \"#utility.yul\":7136:7139   */\n      dup5\n        /* \"#utility.yul\":7128:7134   */\n      dup3\n        /* \"#utility.yul\":7121:7125   */\n      0x20\n        /* \"#utility.yul\":7113:7119   */\n      dup7\n        /* \"#utility.yul\":7109:7126   */\n      add\n        /* \"#utility.yul\":7050:7140   */\n      tag_175\n      jump\t// in\n    tag_279:\n        /* \"#utility.yul\":7041:7140   */\n      swap2\n      pop\n        /* \"#utility.yul\":6864:7146   */\n      pop\n        /* \"#utility.yul\":6791:7146   */\n      swap3\n      swap2\n      pop\n      pop\n      jump\t// out\n        /* \"#utility.yul\":7152:7676   */\n    tag_63:\n        /* \"#utility.yul\":7232:7238   */\n      0x00\n        /* \"#utility.yul\":7281:7283   */\n      0x20\n        /* \"#utility.yul\":7269:7278   */\n      dup3\n        /* \"#utility.yul\":7260:7267   */\n      dup5\n        /* \"#utility.yul\":7256:7279   */\n      sub\n        /* \"#utility.yul\":7252:7284   */\n      slt\n        /* \"#utility.yul\":7249:7368   */\n      iszero\n      tag_281\n      jumpi\n        /* \"#utility.yul\":7287:7366   */\n      tag_282\n      tag_147\n      jump\t// in\n    tag_282:\n        /* \"#utility.yul\":7249:7368   */\n    tag_281:\n        /* \"#utility.yul\":7428:7429   */\n      0x00\n        /* \"#utility.yul\":7417:7426   */\n      dup3\n        /* \"#utility.yul\":7413:7430   */\n      add\n        /* \"#utility.yul\":7407:7431   */\n      mload\n        /* \"#utility.yul\":7458:7476   */\n      0xffffffffffffffff\n        /* \"#utility.yul\":7450:7456   */\n      dup2\n        /* \"#utility.yul\":7447:7477   */\n      gt\n        /* \"#utility.yul\":7444:7561   */\n      iszero\n      tag_283\n      jumpi\n        /* \"#utility.yul\":7480:7559   */\n      tag_284\n      tag_148\n      jump\t// in\n    tag_284:\n        /* \"#utility.yul\":7444:7561   */\n    tag_283:\n        /* \"#utility.yul\":7585:7659   */\n      tag_285\n        /* \"#utility.yul\":7651:7658   */\n      dup5\n        /* \"#utility.yul\":7642:7648   */\n      dup3\n        /* \"#utility.yul\":7631:7640   */\n      dup6\n        /* \"#utility.yul\":7627:7649   */\n      add\n        /* \"#utility.yul\":7585:7659   */\n      tag_176\n      jump\t// in\n    tag_285:\n        /* \"#utility.yul\":7575:7659   */\n      swap2\n      pop\n        /* \"#utility.yul\":7378:7669   */\n      pop\n        /* \"#utility.yul\":7152:7676   */\n      swap3\n      swap2\n      pop\n      pop\n      jump\t// out\n        /* \"#utility.yul\":7682:7862   */\n    tag_72:\n        /* \"#utility.yul\":7730:7807   */\n      0x4e487b7100000000000000000000000000000000000000000000000000000000\n        /* \"#utility.yul\":7727:7728   */\n      0x00\n        /* \"#utility.yul\":7720:7808   */\n      mstore\n        /* \"#utility.yul\":7827:7831   */\n      0x32\n        /* \"#utility.yul\":7824:7825   */\n      0x04\n        /* \"#utility.yul\":7817:7832   */\n      mstore\n        /* \"#utility.yul\":7851:7855   */\n      0x24\n        /* \"#utility.yul\":7848:7849   */\n      0x00\n        /* \"#utility.yul\":7841:7856   */\n      revert\n        /* \"#utility.yul\":7868:8015   */\n    tag_177:\n        /* \"#utility.yul\":7969:7980   */\n      0x00\n        /* \"#utility.yul\":8006:8009   */\n      dup2\n        /* \"#utility.yul\":7991:8009   */\n      swap1\n      pop\n        /* \"#utility.yul\":7868:8015   */\n      swap3\n      swap2\n      pop\n      pop\n      jump\t// out\n        /* \"#utility.yul\":8021:8135   */\n    tag_178:\n      pop\n      jump\t// out\n        /* \"#utility.yul\":8141:8539   */\n    tag_179:\n        /* \"#utility.yul\":8300:8303   */\n      0x00\n        /* \"#utility.yul\":8321:8404   */\n      tag_290\n        /* \"#utility.yul\":8402:8403   */\n      0x00\n        /* \"#utility.yul\":8397:8400   */\n      dup4\n        /* \"#utility.yul\":8321:8404   */\n      tag_177\n      jump\t// in\n    tag_290:\n        /* \"#utility.yul\":8314:8404   */\n      swap2\n      pop\n        /* \"#utility.yul\":8413:8506   */\n      tag_291\n        /* \"#utility.yul\":8502:8505   */\n      dup3\n        /* \"#utility.yul\":8413:8506   */\n      tag_178\n      jump\t// in\n    tag_291:\n        /* \"#utility.yul\":8531:8532   */\n      0x00\n        /* \"#utility.yul\":8526:8529   */\n      dup3\n        /* \"#utility.yul\":8522:8533   */\n      add\n        /* \"#utility.yul\":8515:8533   */\n      swap1\n      pop\n        /* \"#utility.yul\":8141:8539   */\n      swap2\n      swap1\n      pop\n      jump\t// out\n        /* \"#utility.yul\":8545:8924   */\n    tag_81:\n        /* \"#utility.yul\":8729:8732   */\n      0x00\n        /* \"#utility.yul\":8751:8898   */\n      tag_293\n        /* \"#utility.yul\":8894:8897   */\n      dup3\n        /* \"#utility.yul\":8751:8898   */\n      tag_179\n      jump\t// in\n    tag_293:\n        /* \"#utility.yul\":8744:8898   */\n      swap2\n      pop\n        /* \"#utility.yul\":8915:8918   */\n      dup2\n        /* \"#utility.yul\":8908:8918   */\n      swap1\n      pop\n        /* \"#utility.yul\":8545:8924   */\n      swap2\n      swap1\n      pop\n      jump\t// out\n        /* \"#utility.yul\":8930:9107   */\n    tag_180:\n        /* \"#utility.yul\":9070:9099   */\n      0x596f75206e65656420746f207370656e64206d6f726520455448210000000000\n        /* \"#utility.yul\":9066:9067   */\n      0x00\n        /* \"#utility.yul\":9058:9064   */\n      dup3\n        /* \"#utility.yul\":9054:9068   */\n      add\n        /* \"#utility.yul\":9047:9100   */\n      mstore\n        /* \"#utility.yul\":8930:9107   */\n      pop\n      jump\t// out\n        /* \"#utility.yul\":9113:9479   */\n    tag_181:\n        /* \"#utility.yul\":9255:9258   */\n      0x00\n        /* \"#utility.yul\":9276:9343   */\n      tag_296\n        /* \"#utility.yul\":9340:9342   */\n      0x1b\n        /* \"#utility.yul\":9335:9338   */\n      dup4\n        /* \"#utility.yul\":9276:9343   */\n      tag_156\n      jump\t// in\n    tag_296:\n        /* \"#utility.yul\":9269:9343   */\n      swap2\n      pop\n        /* \"#utility.yul\":9352:9445   */\n      tag_297\n        /* \"#utility.yul\":9441:9444   */\n      dup3\n        /* \"#utility.yul\":9352:9445   */\n      tag_180\n      jump\t// in\n    tag_297:\n        /* \"#utility.yul\":9470:9472   */\n      0x20\n        /* \"#utility.yul\":9465:9468   */\n      dup3\n        /* \"#utility.yul\":9461:9473   */\n      add\n        /* \"#utility.yul\":9454:9473   */\n      swap1\n      pop\n        /* \"#utility.yul\":9113:9479   */\n      swap2\n      swap1\n      pop\n      jump\t// out\n        /* \"#utility.yul\":9485:9904   */\n    tag_93:\n        /* \"#utility.yul\":9651:9655   */\n      0x00\n        /* \"#utility.yul\":9689:9691   */\n      0x20\n        /* \"#utility.yul\":9678:9687   */\n      dup3\n        /* \"#utility.yul\":9674:9692   */\n      add\n        /* \"#utility.yul\":9666:9692   */\n      swap1\n      pop\n        /* \"#utility.yul\":9738:9747   */\n      dup2\n        /* \"#utility.yul\":9732:9736   */\n      dup2\n        /* \"#utility.yul\":9728:9748   */\n      sub\n        /* \"#utility.yul\":9724:9725   */\n      0x00\n        /* \"#utility.yul\":9713:9722   */\n      dup4\n        /* \"#utility.yul\":9709:9726   */\n      add\n        /* \"#utility.yul\":9702:9749   */\n      mstore\n        /* \"#utility.yul\":9766:9897   */\n      tag_299\n        /* \"#utility.yul\":9892:9896   */\n      dup2\n        /* \"#utility.yul\":9766:9897   */\n      tag_181\n      jump\t// in\n    tag_299:\n        /* \"#utility.yul\":9758:9897   */\n      swap1\n      pop\n        /* \"#utility.yul\":9485:9904   */\n      swap2\n      swap1\n      pop\n      jump\t// out\n        /* \"#utility.yul\":9910:10090   */\n    tag_182:\n        /* \"#utility.yul\":9958:10035   */\n      0x4e487b7100000000000000000000000000000000000000000000000000000000\n        /* \"#utility.yul\":9955:9956   */\n      0x00\n        /* \"#utility.yul\":9948:10036   */\n      mstore\n        /* \"#utility.yul\":10055:10059   */\n      0x11\n        /* \"#utility.yul\":10052:10053   */\n      0x04\n        /* \"#utility.yul\":10045:10060   */\n      mstore\n        /* \"#utility.yul\":10079:10083   */\n      0x24\n        /* \"#utility.yul\":10076:10077   */\n      0x00\n        /* \"#utility.yul\":10069:10084   */\n      revert\n        /* \"#utility.yul\":10096:10287   */\n    tag_95:\n        /* \"#utility.yul\":10136:10139   */\n      0x00\n        /* \"#utility.yul\":10155:10175   */\n      tag_302\n        /* \"#utility.yul\":10173:10174   */\n      dup3\n        /* \"#utility.yul\":10155:10175   */\n      tag_153\n      jump\t// in\n    tag_302:\n        /* \"#utility.yul\":10150:10175   */\n      swap2\n      pop\n        /* \"#utility.yul\":10189:10209   */\n      tag_303\n        /* \"#utility.yul\":10207:10208   */\n      dup4\n        /* \"#utility.yul\":10189:10209   */\n      tag_153\n      jump\t// in\n    tag_303:\n        /* \"#utility.yul\":10184:10209   */\n      swap3\n      pop\n        /* \"#utility.yul\":10232:10233   */\n      dup3\n        /* \"#utility.yul\":10229:10230   */\n      dup3\n        /* \"#utility.yul\":10225:10234   */\n      add\n        /* \"#utility.yul\":10218:10234   */\n      swap1\n      pop\n        /* \"#utility.yul\":10253:10256   */\n      dup1\n        /* \"#utility.yul\":10250:10251   */\n      dup3\n        /* \"#utility.yul\":10247:10257   */\n      gt\n        /* \"#utility.yul\":10244:10280   */\n      iszero\n      tag_304\n      jumpi\n        /* \"#utility.yul\":10260:10278   */\n      tag_305\n      tag_182\n      jump\t// in\n    tag_305:\n        /* \"#utility.yul\":10244:10280   */\n    tag_304:\n        /* \"#utility.yul\":10096:10287   */\n      swap3\n      swap2\n      pop\n      pop\n      jump\t// out\n        /* \"#utility.yul\":10293:10411   */\n    tag_183:\n        /* \"#utility.yul\":10364:10386   */\n      tag_307\n        /* \"#utility.yul\":10380:10385   */\n      dup2\n        /* \"#utility.yul\":10364:10386   */\n      tag_168\n      jump\t// in\n    tag_307:\n        /* \"#utility.yul\":10357:10362   */\n      dup2\n        /* \"#utility.yul\":10354:10387   */\n      eq\n        /* \"#utility.yul\":10344:10405   */\n      tag_308\n      jumpi\n        /* \"#utility.yul\":10401:10402   */\n      0x00\n        /* \"#utility.yul\":10398:10399   */\n      dup1\n        /* \"#utility.yul\":10391:10403   */\n      revert\n        /* \"#utility.yul\":10344:10405   */\n    tag_308:\n        /* \"#utility.yul\":10293:10411   */\n      pop\n      jump\t// out\n        /* \"#utility.yul\":10417:10556   */\n    tag_184:\n        /* \"#utility.yul\":10472:10477   */\n      0x00\n        /* \"#utility.yul\":10503:10509   */\n      dup2\n        /* \"#utility.yul\":10497:10510   */\n      mload\n        /* \"#utility.yul\":10488:10510   */\n      swap1\n      pop\n        /* \"#utility.yul\":10519:10550   */\n      tag_310\n        /* \"#utility.yul\":10544:10549   */\n      dup2\n        /* \"#utility.yul\":10519:10550   */\n      tag_183\n      jump\t// in\n    tag_310:\n        /* \"#utility.yul\":10417:10556   */\n      swap3\n      swap2\n      pop\n      pop\n      jump\t// out\n        /* \"#utility.yul\":10562:10909   */\n    tag_124:\n        /* \"#utility.yul\":10630:10636   */\n      0x00\n        /* \"#utility.yul\":10679:10681   */\n      0x20\n        /* \"#utility.yul\":10667:10676   */\n      dup3\n        /* \"#utility.yul\":10658:10665   */\n      dup5\n        /* \"#utility.yul\":10654:10677   */\n      sub\n        /* \"#utility.yul\":10650:10682   */\n      slt\n        /* \"#utility.yul\":10647:10766   */\n      iszero\n      tag_312\n      jumpi\n        /* \"#utility.yul\":10685:10764   */\n      tag_313\n      tag_147\n      jump\t// in\n    tag_313:\n        /* \"#utility.yul\":10647:10766   */\n    tag_312:\n        /* \"#utility.yul\":10805:10806   */\n      0x00\n        /* \"#utility.yul\":10830:10892   */\n      tag_314\n        /* \"#utility.yul\":10884:10891   */\n      dup5\n        /* \"#utility.yul\":10875:10881   */\n      dup3\n        /* \"#utility.yul\":10864:10873   */\n      dup6\n        /* \"#utility.yul\":10860:10882   */\n      add\n        /* \"#utility.yul\":10830:10892   */\n      tag_184\n      jump\t// in\n    tag_314:\n        /* \"#utility.yul\":10820:10892   */\n      swap2\n      pop\n        /* \"#utility.yul\":10776:10902   */\n      pop\n        /* \"#utility.yul\":10562:10909   */\n      swap3\n      swap2\n      pop\n      pop\n      jump\t// out\n        /* \"#utility.yul\":10915:11325   */\n    tag_129:\n        /* \"#utility.yul\":10955:10962   */\n      0x00\n        /* \"#utility.yul\":10978:10998   */\n      tag_316\n        /* \"#utility.yul\":10996:10997   */\n      dup3\n        /* \"#utility.yul\":10978:10998   */\n      tag_153\n      jump\t// in\n    tag_316:\n        /* \"#utility.yul\":10973:10998   */\n      swap2\n      pop\n        /* \"#utility.yul\":11012:11032   */\n      tag_317\n        /* \"#utility.yul\":11030:11031   */\n      dup4\n        /* \"#utility.yul\":11012:11032   */\n      tag_153\n      jump\t// in\n    tag_317:\n        /* \"#utility.yul\":11007:11032   */\n      swap3\n      pop\n        /* \"#utility.yul\":11067:11068   */\n      dup3\n        /* \"#utility.yul\":11064:11065   */\n      dup3\n        /* \"#utility.yul\":11060:11069   */\n      mul\n        /* \"#utility.yul\":11089:11119   */\n      tag_318\n        /* \"#utility.yul\":11107:11118   */\n      dup2\n        /* \"#utility.yul\":11089:11119   */\n      tag_153\n      jump\t// in\n    tag_318:\n        /* \"#utility.yul\":11078:11119   */\n      swap2\n      pop\n        /* \"#utility.yul\":11268:11269   */\n      dup3\n        /* \"#utility.yul\":11259:11266   */\n      dup3\n        /* \"#utility.yul\":11255:11270   */\n      div\n        /* \"#utility.yul\":11252:11253   */\n      dup5\n        /* \"#utility.yul\":11249:11271   */\n      eq\n        /* \"#utility.yul\":11229:11230   */\n      dup4\n        /* \"#utility.yul\":11222:11231   */\n      iszero\n        /* \"#utility.yul\":11202:11285   */\n      or\n        /* \"#utility.yul\":11179:11318   */\n      tag_319\n      jumpi\n        /* \"#utility.yul\":11298:11316   */\n      tag_320\n      tag_182\n      jump\t// in\n    tag_320:\n        /* \"#utility.yul\":11179:11318   */\n    tag_319:\n        /* \"#utility.yul\":10963:11325   */\n      pop\n        /* \"#utility.yul\":10915:11325   */\n      swap3\n      swap2\n      pop\n      pop\n      jump\t// out\n        /* \"#utility.yul\":11331:11511   */\n    tag_185:\n        /* \"#utility.yul\":11379:11456   */\n      0x4e487b7100000000000000000000000000000000000000000000000000000000\n        /* \"#utility.yul\":11376:11377   */\n      0x00\n        /* \"#utility.yul\":11369:11457   */\n      mstore\n        /* \"#utility.yul\":11476:11480   */\n      0x12\n        /* \"#utility.yul\":11473:11474   */\n      0x04\n        /* \"#utility.yul\":11466:11481   */\n      mstore\n        /* \"#utility.yul\":11500:11504   */\n      0x24\n        /* \"#utility.yul\":11497:11498   */\n      0x00\n        /* \"#utility.yul\":11490:11505   */\n      revert\n        /* \"#utility.yul\":11517:11702   */\n    tag_131:\n        /* \"#utility.yul\":11557:11558   */\n      0x00\n        /* \"#utility.yul\":11574:11594   */\n      tag_323\n        /* \"#utility.yul\":11592:11593   */\n      dup3\n        /* \"#utility.yul\":11574:11594   */\n      tag_153\n      jump\t// in\n    tag_323:\n        /* \"#utility.yul\":11569:11594   */\n      swap2\n      pop\n        /* \"#utility.yul\":11608:11628   */\n      tag_324\n        /* \"#utility.yul\":11626:11627   */\n      dup4\n        /* \"#utility.yul\":11608:11628   */\n      tag_153\n      jump\t// in\n    tag_324:\n        /* \"#utility.yul\":11603:11628   */\n      swap3\n      pop\n        /* \"#utility.yul\":11647:11648   */\n      dup3\n        /* \"#utility.yul\":11637:11672   */\n      tag_325\n      jumpi\n        /* \"#utility.yul\":11652:11670   */\n      tag_326\n      tag_185\n      jump\t// in\n    tag_326:\n        /* \"#utility.yul\":11637:11672   */\n    tag_325:\n        /* \"#utility.yul\":11694:11695   */\n      dup3\n        /* \"#utility.yul\":11691:11692   */\n      dup3\n        /* \"#utility.yul\":11687:11696   */\n      div\n        /* \"#utility.yul\":11682:11696   */\n      swap1\n      pop\n        /* \"#utility.yul\":11517:11702   */\n      swap3\n      swap2\n      pop\n      pop\n      jump\t// out\n        /* \"#utility.yul\":11708:11813   */\n    tag_186:\n        /* \"#utility.yul\":11744:11751   */\n      0x00\n        /* \"#utility.yul\":11784:11806   */\n      0xffffffffffffffffffff\n        /* \"#utility.yul\":11777:11782   */\n      dup3\n        /* \"#utility.yul\":11773:11807   */\n      and\n        /* \"#utility.yul\":11762:11807   */\n      swap1\n      pop\n        /* \"#utility.yul\":11708:11813   */\n      swap2\n      swap1\n      pop\n      jump\t// out\n        /* \"#utility.yul\":11819:11939   */\n    tag_187:\n        /* \"#utility.yul\":11891:11914   */\n      tag_329\n        /* \"#utility.yul\":11908:11913   */\n      dup2\n        /* \"#utility.yul\":11891:11914   */\n      tag_186\n      jump\t// in\n    tag_329:\n        /* \"#utility.yul\":11884:11889   */\n      dup2\n        /* \"#utility.yul\":11881:11915   */\n      eq\n        /* \"#utility.yul\":11871:11933   */\n      tag_330\n      jumpi\n        /* \"#utility.yul\":11929:11930   */\n      0x00\n        /* \"#utility.yul\":11926:11927   */\n      dup1\n        /* \"#utility.yul\":11919:11931   */\n      revert\n        /* \"#utility.yul\":11871:11933   */\n    tag_330:\n        /* \"#utility.yul\":11819:11939   */\n      pop\n      jump\t// out\n        /* \"#utility.yul\":11945:12086   */\n    tag_188:\n        /* \"#utility.yul\":12001:12006   */\n      0x00\n        /* \"#utility.yul\":12032:12038   */\n      dup2\n        /* \"#utility.yul\":12026:12039   */\n      mload\n        /* \"#utility.yul\":12017:12039   */\n      swap1\n      pop\n        /* \"#utility.yul\":12048:12080   */\n      tag_332\n        /* \"#utility.yul\":12074:12079   */\n      dup2\n        /* \"#utility.yul\":12048:12080   */\n      tag_187\n      jump\t// in\n    tag_332:\n        /* \"#utility.yul\":11945:12086   */\n      swap3\n      swap2\n      pop\n      pop\n      jump\t// out\n        /* \"#utility.yul\":12092:12168   */\n    tag_189:\n        /* \"#utility.yul\":12128:12135   */\n      0x00\n        /* \"#utility.yul\":12157:12162   */\n      dup2\n        /* \"#utility.yul\":12146:12162   */\n      swap1\n      pop\n        /* \"#utility.yul\":12092:12168   */\n      swap2\n      swap1\n      pop\n      jump\t// out\n        /* \"#utility.yul\":12174:12294   */\n    tag_190:\n        /* \"#utility.yul\":12246:12269   */\n      tag_335\n        /* \"#utility.yul\":12263:12268   */\n      dup2\n        /* \"#utility.yul\":12246:12269   */\n      tag_189\n      jump\t// in\n    tag_335:\n        /* \"#utility.yul\":12239:12244   */\n      dup2\n        /* \"#utility.yul\":12236:12270   */\n      eq\n        /* \"#utility.yul\":12226:12288   */\n      tag_336\n      jumpi\n        /* \"#utility.yul\":12284:12285   */\n      0x00\n        /* \"#utility.yul\":12281:12282   */\n      dup1\n        /* \"#utility.yul\":12274:12286   */\n      revert\n        /* \"#utility.yul\":12226:12288   */\n    tag_336:\n        /* \"#utility.yul\":12174:12294   */\n      pop\n      jump\t// out\n        /* \"#utility.yul\":12300:12441   */\n    tag_191:\n        /* \"#utility.yul\":12356:12361   */\n      0x00\n        /* \"#utility.yul\":12387:12393   */\n      dup2\n        /* \"#utility.yul\":12381:12394   */\n      mload\n        /* \"#utility.yul\":12372:12394   */\n      swap1\n      pop\n        /* \"#utility.yul\":12403:12435   */\n      tag_338\n        /* \"#utility.yul\":12429:12434   */\n      dup2\n        /* \"#utility.yul\":12403:12435   */\n      tag_190\n      jump\t// in\n    tag_338:\n        /* \"#utility.yul\":12300:12441   */\n      swap3\n      swap2\n      pop\n      pop\n      jump\t// out\n        /* \"#utility.yul\":12447:12590   */\n    tag_192:\n        /* \"#utility.yul\":12504:12509   */\n      0x00\n        /* \"#utility.yul\":12535:12541   */\n      dup2\n        /* \"#utility.yul\":12529:12542   */\n      mload\n        /* \"#utility.yul\":12520:12542   */\n      swap1\n      pop\n        /* \"#utility.yul\":12551:12584   */\n      tag_340\n        /* \"#utility.yul\":12578:12583   */\n      dup2\n        /* \"#utility.yul\":12551:12584   */\n      tag_166\n      jump\t// in\n    tag_340:\n        /* \"#utility.yul\":12447:12590   */\n      swap3\n      swap2\n      pop\n      pop\n      jump\t// out\n        /* \"#utility.yul\":12596:13567   */\n    tag_136:\n        /* \"#utility.yul\":12699:12705   */\n      0x00\n        /* \"#utility.yul\":12707:12713   */\n      dup1\n        /* \"#utility.yul\":12715:12721   */\n      0x00\n        /* \"#utility.yul\":12723:12729   */\n      dup1\n        /* \"#utility.yul\":12731:12737   */\n      0x00\n        /* \"#utility.yul\":12780:12783   */\n      0xa0\n        /* \"#utility.yul\":12768:12777   */\n      dup7\n        /* \"#utility.yul\":12759:12766   */\n      dup9\n        /* \"#utility.yul\":12755:12778   */\n      sub\n        /* \"#utility.yul\":12751:12784   */\n      slt\n        /* \"#utility.yul\":12748:12868   */\n      iszero\n      tag_342\n      jumpi\n        /* \"#utility.yul\":12787:12866   */\n      tag_343\n      tag_147\n      jump\t// in\n    tag_343:\n        /* \"#utility.yul\":12748:12868   */\n    tag_342:\n        /* \"#utility.yul\":12907:12908   */\n      0x00\n        /* \"#utility.yul\":12932:12995   */\n      tag_344\n        /* \"#utility.yul\":12987:12994   */\n      dup9\n        /* \"#utility.yul\":12978:12984   */\n      dup3\n        /* \"#utility.yul\":12967:12976   */\n      dup10\n        /* \"#utility.yul\":12963:12985   */\n      add\n        /* \"#utility.yul\":12932:12995   */\n      tag_188\n      jump\t// in\n    tag_344:\n        /* \"#utility.yul\":12922:12995   */\n      swap6\n      pop\n        /* \"#utility.yul\":12878:13005   */\n      pop\n        /* \"#utility.yul\":13044:13046   */\n      0x20\n        /* \"#utility.yul\":13070:13133   */\n      tag_345\n        /* \"#utility.yul\":13125:13132   */\n      dup9\n        /* \"#utility.yul\":13116:13122   */\n      dup3\n        /* \"#utility.yul\":13105:13114   */\n      dup10\n        /* \"#utility.yul\":13101:13123   */\n      add\n        /* \"#utility.yul\":13070:13133   */\n      tag_191\n      jump\t// in\n    tag_345:\n        /* \"#utility.yul\":13060:13133   */\n      swap5\n      pop\n        /* \"#utility.yul\":13015:13143   */\n      pop\n        /* \"#utility.yul\":13182:13184   */\n      0x40\n        /* \"#utility.yul\":13208:13272   */\n      tag_346\n        /* \"#utility.yul\":13264:13271   */\n      dup9\n        /* \"#utility.yul\":13255:13261   */\n      dup3\n        /* \"#utility.yul\":13244:13253   */\n      dup10\n        /* \"#utility.yul\":13240:13262   */\n      add\n        /* \"#utility.yul\":13208:13272   */\n      tag_192\n      jump\t// in\n    tag_346:\n        /* \"#utility.yul\":13198:13272   */\n      swap4\n      pop\n        /* \"#utility.yul\":13153:13282   */\n      pop\n        /* \"#utility.yul\":13321:13323   */\n      0x60\n        /* \"#utility.yul\":13347:13411   */\n      tag_347\n        /* \"#utility.yul\":13403:13410   */\n      dup9\n        /* \"#utility.yul\":13394:13400   */\n      dup3\n        /* \"#utility.yul\":13383:13392   */\n      dup10\n        /* \"#utility.yul\":13379:13401   */\n      add\n        /* \"#utility.yul\":13347:13411   */\n      tag_192\n      jump\t// in\n    tag_347:\n        /* \"#utility.yul\":13337:13411   */\n      swap3\n      pop\n        /* \"#utility.yul\":13292:13421   */\n      pop\n        /* \"#utility.yul\":13460:13463   */\n      0x80\n        /* \"#utility.yul\":13487:13550   */\n      tag_348\n        /* \"#utility.yul\":13542:13549   */\n      dup9\n        /* \"#utility.yul\":13533:13539   */\n      dup3\n        /* \"#utility.yul\":13522:13531   */\n      dup10\n        /* \"#utility.yul\":13518:13540   */\n      add\n        /* \"#utility.yul\":13487:13550   */\n      tag_188\n      jump\t// in\n    tag_348:\n        /* \"#utility.yul\":13477:13550   */\n      swap2\n      pop\n        /* \"#utility.yul\":13431:13560   */\n      pop\n        /* \"#utility.yul\":12596:13567   */\n      swap3\n      swap6\n      pop\n      swap3\n      swap6\n      swap1\n      swap4\n      pop\n      jump\t// out\n        /* \"#utility.yul\":13573:14129   */\n    tag_138:\n        /* \"#utility.yul\":13612:13619   */\n      0x00\n        /* \"#utility.yul\":13635:13654   */\n      tag_350\n        /* \"#utility.yul\":13652:13653   */\n      dup3\n        /* \"#utility.yul\":13635:13654   */\n      tag_189\n      jump\t// in\n    tag_350:\n        /* \"#utility.yul\":13630:13654   */\n      swap2\n      pop\n        /* \"#utility.yul\":13668:13687   */\n      tag_351\n        /* \"#utility.yul\":13685:13686   */\n      dup4\n        /* \"#utility.yul\":13668:13687   */\n      tag_189\n      jump\t// in\n    tag_351:\n        /* \"#utility.yul\":13663:13687   */\n      swap3\n      pop\n        /* \"#utility.yul\":13722:13723   */\n      dup3\n        /* \"#utility.yul\":13719:13720   */\n      dup3\n        /* \"#utility.yul\":13715:13724   */\n      mul\n        /* \"#utility.yul\":13744:13773   */\n      tag_352\n        /* \"#utility.yul\":13761:13772   */\n      dup2\n        /* \"#utility.yul\":13744:13773   */\n      tag_189\n      jump\t// in\n    tag_352:\n        /* \"#utility.yul\":13733:13773   */\n      swap2\n      pop\n        /* \"#utility.yul\":13831:13897   */\n      0x8000000000000000000000000000000000000000000000000000000000000000\n        /* \"#utility.yul\":13828:13829   */\n      dup5\n        /* \"#utility.yul\":13825:13898   */\n      eq\n        /* \"#utility.yul\":13821:13822   */\n      0x00\n        /* \"#utility.yul\":13818:13819   */\n      dup5\n        /* \"#utility.yul\":13814:13823   */\n      slt\n        /* \"#utility.yul\":13810:13899   */\n      and\n        /* \"#utility.yul\":13807:13922   */\n      iszero\n      tag_353\n      jumpi\n        /* \"#utility.yul\":13902:13920   */\n      tag_354\n      tag_182\n      jump\t// in\n    tag_354:\n        /* \"#utility.yul\":13807:13922   */\n    tag_353:\n        /* \"#utility.yul\":14072:14073   */\n      dup3\n        /* \"#utility.yul\":14063:14070   */\n      dup3\n        /* \"#utility.yul\":14058:14074   */\n      sdiv\n        /* \"#utility.yul\":14055:14056   */\n      dup5\n        /* \"#utility.yul\":14052:14075   */\n      eq\n        /* \"#utility.yul\":14032:14033   */\n      dup4\n        /* \"#utility.yul\":14025:14034   */\n      iszero\n        /* \"#utility.yul\":14005:14089   */\n      or\n        /* \"#utility.yul\":13982:14122   */\n      tag_355\n      jumpi\n        /* \"#utility.yul\":14102:14120   */\n      tag_356\n      tag_182\n      jump\t// in\n    tag_356:\n        /* \"#utility.yul\":13982:14122   */\n    tag_355:\n        /* \"#utility.yul\":13620:14129   */\n      pop\n        /* \"#utility.yul\":13573:14129   */\n      swap3\n      swap2\n      pop\n      pop\n      jump\t// out\n\n    auxdata: 0xa26469706673582212208625c75f863148839c4f9d21a7ed808b0fceeb05f4f794905354ac573cd36a5464736f6c634300081a0033\n}\n",
				"bytecode": {
					"linkReferences": {},
					"object": "60a060405234801561000f575f80fd5b5060405161146738038061146783398181016040528101906100319190610109565b8060025f6101000a81548173ffffffffffffffffffffffffffffffffffffffff021916908373ffffffffffffffffffffffffffffffffffffffff1602179055503373ffffffffffffffffffffffffffffffffffffffff1660808173ffffffffffffffffffffffffffffffffffffffff168152505050610134565b5f80fd5b5f73ffffffffffffffffffffffffffffffffffffffff82169050919050565b5f6100d8826100af565b9050919050565b6100e8816100ce565b81146100f2575f80fd5b50565b5f81519050610103816100df565b92915050565b5f6020828403121561011e5761011d6100ab565b5b5f61012b848285016100f5565b91505092915050565b6080516112ff6101685f395f81816102f4015281816104750152818161051501528181610695015261087901526112ff5ff3fe608060405260043610610090575f3560e01c80639e87a5cd116100585780639e87a5cd14610164578063b60d42881461018e578063be2693f014610198578063d7b4750c146101ae578063f0141d84146101ea57610090565b80630343fb25146100945780631a092541146100d05780633ccfd60b146100fa5780636b69a59214610110578063893d20e81461013a575b5f80fd5b34801561009f575f80fd5b506100ba60048036038101906100b59190610bb7565b610214565b6040516100c79190610bfa565b60405180910390f35b3480156100db575f80fd5b506100e461025a565b6040516100f19190610c83565b60405180910390f35b348015610105575f80fd5b5061010e6102f2565b005b34801561011b575f80fd5b50610124610506565b6040516101319190610bfa565b60405180910390f35b348015610145575f80fd5b5061014e610512565b60405161015b9190610cb2565b60405180910390f35b34801561016f575f80fd5b50610178610539565b6040516101859190610d26565b60405180910390f35b610196610561565b005b3480156101a3575f80fd5b506101ac610693565b005b3480156101b9575f80fd5b506101d460048036038101906101cf9190610d69565b61090b565b6040516101e19190610cb2565b60405180910390f35b3480156101f5575f80fd5b506101fe61094e565b60405161020b9190610daf565b60405180910390f35b5f60015f8373ffffffffffffffffffffffffffffffffffffffff1673ffffffffffffffffffffffffffffffffffffffff1681526020019081526020015f20549050919050565b606060025f9054906101000a900473ffffffffffffffffffffffffffffffffffffffff1673ffffffffffffffffffffffffffffffffffffffff16637284e4166040518163ffffffff1660e01b81526004015f60405180830381865afa1580156102c5573d5f803e3d5ffd5b505050506040513d5f823e3d601f19601f820116820180604052508101906102ed9190610ee6565b905090565b7f000000000000000000000000000000000000000000000000000000000000000073ffffffffffffffffffffffffffffffffffffffff163373ffffffffffffffffffffffffffffffffffffffff1614610377576040517f579610db00000000000000000000000000000000000000000000000000000000815260040160405180910390fd5b5f5b5f80549050811015610413575f80828154811061039957610398610f2d565b5b905f5260205f20015f9054906101000a900473ffffffffffffffffffffffffffffffffffffffff1690505f60015f8373ffffffffffffffffffffffffffffffffffffffff1673ffffffffffffffffffffffffffffffffffffffff1681526020019081526020015f2081905550508080600101915050610379565b505f67ffffffffffffffff81111561042e5761042d610dd0565b5b60405190808252806020026020018201604052801561045c5781602001602082028036833780820191505090505b505f9080519060200190610471929190610aaa565b505f7f000000000000000000000000000000000000000000000000000000000000000073ffffffffffffffffffffffffffffffffffffffff16476040516104b790610f87565b5f6040518083038185875af1925050503d805f81146104f1576040519150601f19603f3d011682016040523d82523d5f602084013e6104f6565b606091505b5050905080610503575f80fd5b50565b674563918244f4000081565b5f7f0000000000000000000000000000000000000000000000000000000000000000905090565b5f60025f9054906101000a900473ffffffffffffffffffffffffffffffffffffffff16905090565b674563918244f4000061059e60025f9054906101000a900473ffffffffffffffffffffffffffffffffffffffff16346109e290919063ffffffff16565b10156105df576040517f08c379a00000000000000000000000000000000000000000000000000000000081526004016105d690610fe5565b60405180910390fd5b3460015f3373ffffffffffffffffffffffffffffffffffffffff1673ffffffffffffffffffffffffffffffffffffffff1681526020019081526020015f205f82825461062b9190611030565b925050819055505f33908060018154018082558091505060019003905f5260205f20015f9091909190916101000a81548173ffffffffffffffffffffffffffffffffffffffff021916908373ffffffffffffffffffffffffffffffffffffffff160217905550565b7f000000000000000000000000000000000000000000000000000000000000000073ffffffffffffffffffffffffffffffffffffffff163373ffffffffffffffffffffffffffffffffffffffff1614610718576040517f579610db00000000000000000000000000000000000000000000000000000000815260040160405180910390fd5b5f8080548060200260200160405190810160405280929190818152602001828054801561079757602002820191905f5260205f20905b815f9054906101000a900473ffffffffffffffffffffffffffffffffffffffff1673ffffffffffffffffffffffffffffffffffffffff168152602001906001019080831161074e575b505050505090505f5b8151811015610817575f8282815181106107bd576107bc610f2d565b5b602002602001015190505f60015f8373ffffffffffffffffffffffffffffffffffffffff1673ffffffffffffffffffffffffffffffffffffffff1681526020019081526020015f20819055505080806001019150506107a0565b505f67ffffffffffffffff81111561083257610831610dd0565b5b6040519080825280602002602001820160405280156108605781602001602082028036833780820191505090505b505f9080519060200190610875929190610aaa565b505f7f000000000000000000000000000000000000000000000000000000000000000073ffffffffffffffffffffffffffffffffffffffff16476040516108bb90610f87565b5f6040518083038185875af1925050503d805f81146108f5576040519150601f19603f3d011682016040523d82523d5f602084013e6108fa565b606091505b5050905080610907575f80fd5b5050565b5f80828154811061091f5761091e610f2d565b5b905f5260205f20015f9054906101000a900473ffffffffffffffffffffffffffffffffffffffff169050919050565b5f60025f9054906101000a900473ffffffffffffffffffffffffffffffffffffffff1673ffffffffffffffffffffffffffffffffffffffff1663313ce5676040518163ffffffff1660e01b8152600401602060405180830381865afa1580156109b9573d5f803e3d5ffd5b505050506040513d601f19601f820116820180604052508101906109dd919061108d565b905090565b5f806109ed83610a1c565b90505f670de0b6b3a76400008583610a0591906110b8565b610a0f9190611126565b9050809250505092915050565b5f808273ffffffffffffffffffffffffffffffffffffffff1663feaf968c6040518163ffffffff1660e01b815260040160a060405180830381865afa158015610a67573d5f803e3d5ffd5b505050506040513d601f19601f82011682018060405250810190610a8b91906111dc565b5050509150506402540be40081610aa29190611253565b915050919050565b828054828255905f5260205f20908101928215610b20579160200282015b82811115610b1f578251825f6101000a81548173ffffffffffffffffffffffffffffffffffffffff021916908373ffffffffffffffffffffffffffffffffffffffff16021790555091602001919060010190610ac8565b5b509050610b2d9190610b31565b5090565b5b80821115610b48575f815f905550600101610b32565b5090565b5f604051905090565b5f80fd5b5f80fd5b5f73ffffffffffffffffffffffffffffffffffffffff82169050919050565b5f610b8682610b5d565b9050919050565b610b9681610b7c565b8114610ba0575f80fd5b50565b5f81359050610bb181610b8d565b92915050565b5f60208284031215610bcc57610bcb610b55565b5b5f610bd984828501610ba3565b91505092915050565b5f819050919050565b610bf481610be2565b82525050565b5f602082019050610c0d5f830184610beb565b92915050565b5f81519050919050565b5f82825260208201905092915050565b8281835e5f83830152505050565b5f601f19601f8301169050919050565b5f610c5582610c13565b610c5f8185610c1d565b9350610c6f818560208601610c2d565b610c7881610c3b565b840191505092915050565b5f6020820190508181035f830152610c9b8184610c4b565b905092915050565b610cac81610b7c565b82525050565b5f602082019050610cc55f830184610ca3565b92915050565b5f819050919050565b5f610cee610ce9610ce484610b5d565b610ccb565b610b5d565b9050919050565b5f610cff82610cd4565b9050919050565b5f610d1082610cf5565b9050919050565b610d2081610d06565b82525050565b5f602082019050610d395f830184610d17565b92915050565b610d4881610be2565b8114610d52575f80fd5b50565b5f81359050610d6381610d3f565b92915050565b5f60208284031215610d7e57610d7d610b55565b5b5f610d8b84828501610d55565b91505092915050565b5f60ff82169050919050565b610da981610d94565b82525050565b5f602082019050610dc25f830184610da0565b92915050565b5f80fd5b5f80fd5b7f4e487b71000000000000000000000000000000000000000000000000000000005f52604160045260245ffd5b610e0682610c3b565b810181811067ffffffffffffffff82111715610e2557610e24610dd0565b5b80604052505050565b5f610e37610b4c565b9050610e438282610dfd565b919050565b5f67ffffffffffffffff821115610e6257610e61610dd0565b5b610e6b82610c3b565b9050602081019050919050565b5f610e8a610e8584610e48565b610e2e565b905082815260208101848484011115610ea657610ea5610dcc565b5b610eb1848285610c2d565b509392505050565b5f82601f830112610ecd57610ecc610dc8565b5b8151610edd848260208601610e78565b91505092915050565b5f60208284031215610efb57610efa610b55565b5b5f82015167ffffffffffffffff811115610f1857610f17610b59565b5b610f2484828501610eb9565b91505092915050565b7f4e487b71000000000000000000000000000000000000000000000000000000005f52603260045260245ffd5b5f81905092915050565b50565b5f610f725f83610f5a565b9150610f7d82610f64565b5f82019050919050565b5f610f9182610f67565b9150819050919050565b7f596f75206e65656420746f207370656e64206d6f7265204554482100000000005f82015250565b5f610fcf601b83610c1d565b9150610fda82610f9b565b602082019050919050565b5f6020820190508181035f830152610ffc81610fc3565b9050919050565b7f4e487b71000000000000000000000000000000000000000000000000000000005f52601160045260245ffd5b5f61103a82610be2565b915061104583610be2565b925082820190508082111561105d5761105c611003565b5b92915050565b61106c81610d94565b8114611076575f80fd5b50565b5f8151905061108781611063565b92915050565b5f602082840312156110a2576110a1610b55565b5b5f6110af84828501611079565b91505092915050565b5f6110c282610be2565b91506110cd83610be2565b92508282026110db81610be2565b915082820484148315176110f2576110f1611003565b5b5092915050565b7f4e487b71000000000000000000000000000000000000000000000000000000005f52601260045260245ffd5b5f61113082610be2565b915061113b83610be2565b92508261114b5761114a6110f9565b5b828204905092915050565b5f69ffffffffffffffffffff82169050919050565b61117481611156565b811461117e575f80fd5b50565b5f8151905061118f8161116b565b92915050565b5f819050919050565b6111a781611195565b81146111b1575f80fd5b50565b5f815190506111c28161119e565b92915050565b5f815190506111d681610d3f565b92915050565b5f805f805f60a086880312156111f5576111f4610b55565b5b5f61120288828901611181565b9550506020611213888289016111b4565b9450506040611224888289016111c8565b9350506060611235888289016111c8565b925050608061124688828901611181565b9150509295509295909350565b5f61125d82611195565b915061126883611195565b925082820261127681611195565b91507f800000000000000000000000000000000000000000000000000000000000000084145f841216156112ad576112ac611003565b5b82820584148315176112c2576112c1611003565b5b509291505056fea26469706673582212208625c75f863148839c4f9d21a7ed808b0fceeb05f4f794905354ac573cd36a5464736f6c634300081a0033",
					"opcodes": "PUSH1 0xA0 PUSH1 0x40 MSTORE CALLVALUE DUP1 ISZERO PUSH2 0xF JUMPI PUSH0 DUP1 REVERT JUMPDEST POP PUSH1 0x40 MLOAD PUSH2 0x1467 CODESIZE SUB DUP1 PUSH2 0x1467 DUP4 CODECOPY DUP2 DUP2 ADD PUSH1 0x40 MSTORE DUP2 ADD SWAP1 PUSH2 0x31 SWAP2 SWAP1 PUSH2 0x109 JUMP JUMPDEST DUP1 PUSH1 0x2 PUSH0 PUSH2 0x100 EXP DUP2 SLOAD DUP2 PUSH20 0xFFFFFFFFFFFFFFFFFFFFFFFFFFFFFFFFFFFFFFFF MUL NOT AND SWAP1 DUP4 PUSH20 0xFFFFFFFFFFFFFFFFFFFFFFFFFFFFFFFFFFFFFFFF AND MUL OR SWAP1 SSTORE POP CALLER PUSH20 0xFFFFFFFFFFFFFFFFFFFFFFFFFFFFFFFFFFFFFFFF AND PUSH1 0x80 DUP2 PUSH20 0xFFFFFFFFFFFFFFFFFFFFFFFFFFFFFFFFFFFFFFFF AND DUP2 MSTORE POP POP POP PUSH2 0x134 JUMP JUMPDEST PUSH0 DUP1 REVERT JUMPDEST PUSH0 PUSH20 0xFFFFFFFFFFFFFFFFFFFFFFFFFFFFFFFFFFFFFFFF DUP3 AND SWAP1 POP SWAP2 SWAP1 POP JUMP JUMPDEST PUSH0 PUSH2 0xD8 DUP3 PUSH2 0xAF JUMP JUMPDEST SWAP1 POP SWAP2 SWAP1 POP JUMP JUMPDEST PUSH2 0xE8 DUP2 PUSH2 0xCE JUMP JUMPDEST DUP2 EQ PUSH2 0xF2 JUMPI PUSH0 DUP1 REVERT JUMPDEST POP JUMP JUMPDEST PUSH0 DUP2 MLOAD SWAP1 POP PUSH2 0x103 DUP2 PUSH2 0xDF JUMP JUMPDEST SWAP3 SWAP2 POP POP JUMP JUMPDEST PUSH0 PUSH1 0x20 DUP3 DUP5 SUB SLT ISZERO PUSH2 0x11E JUMPI PUSH2 0x11D PUSH2 0xAB JUMP JUMPDEST JUMPDEST PUSH0 PUSH2 0x12B DUP5 DUP3 DUP6 ADD PUSH2 0xF5 JUMP JUMPDEST SWAP2 POP POP SWAP3 SWAP2 POP POP JUMP JUMPDEST PUSH1 0x80 MLOAD PUSH2 0x12FF PUSH2 0x168 PUSH0 CODECOPY PUSH0 DUP2 DUP2 PUSH2 0x2F4 ADD MSTORE DUP2 DUP2 PUSH2 0x475 ADD MSTORE DUP2 DUP2 PUSH2 0x515 ADD MSTORE DUP2 DUP2 PUSH2 0x695 ADD MSTORE PUSH2 0x879 ADD MSTORE PUSH2 0x12FF PUSH0 RETURN INVALID PUSH1 0x80 PUSH1 0x40 MSTORE PUSH1 0x4 CALLDATASIZE LT PUSH2 0x90 JUMPI PUSH0 CALLDATALOAD PUSH1 0xE0 SHR DUP1 PUSH4 0x9E87A5CD GT PUSH2 0x58 JUMPI DUP1 PUSH4 0x9E87A5CD EQ PUSH2 0x164 JUMPI DUP1 PUSH4 0xB60D4288 EQ PUSH2 0x18E JUMPI DUP1 PUSH4 0xBE2693F0 EQ PUSH2 0x198 JUMPI DUP1 PUSH4 0xD7B4750C EQ PUSH2 0x1AE JUMPI DUP1 PUSH4 0xF0141D84 EQ PUSH2 0x1EA JUMPI PUSH2 0x90 JUMP JUMPDEST DUP1 PUSH4 0x343FB25 EQ PUSH2 0x94 JUMPI DUP1 PUSH4 0x1A092541 EQ PUSH2 0xD0 JUMPI DUP1 PUSH4 0x3CCFD60B EQ PUSH2 0xFA JUMPI DUP1 PUSH4 0x6B69A592 EQ PUSH2 0x110 JUMPI DUP1 PUSH4 0x893D20E8 EQ PUSH2 0x13A JUMPI JUMPDEST PUSH0 DUP1 REVERT JUMPDEST CALLVALUE DUP1 ISZERO PUSH2 0x9F JUMPI PUSH0 DUP1 REVERT JUMPDEST POP PUSH2 0xBA PUSH1 0x4 DUP1 CALLDATASIZE SUB DUP2 ADD SWAP1 PUSH2 0xB5 SWAP2 SWAP1 PUSH2 0xBB7 JUMP JUMPDEST PUSH2 0x214 JUMP JUMPDEST PUSH1 0x40 MLOAD PUSH2 0xC7 SWAP2 SWAP1 PUSH2 0xBFA JUMP JUMPDEST PUSH1 0x40 MLOAD DUP1 SWAP2 SUB SWAP1 RETURN JUMPDEST CALLVALUE DUP1 ISZERO PUSH2 0xDB JUMPI PUSH0 DUP1 REVERT JUMPDEST POP PUSH2 0xE4 PUSH2 0x25A JUMP JUMPDEST PUSH1 0x40 MLOAD PUSH2 0xF1 SWAP2 SWAP1 PUSH2 0xC83 JUMP JUMPDEST PUSH1 0x40 MLOAD DUP1 SWAP2 SUB SWAP1 RETURN JUMPDEST CALLVALUE DUP1 ISZERO PUSH2 0x105 JUMPI PUSH0 DUP1 REVERT JUMPDEST POP PUSH2 0x10E PUSH2 0x2F2 JUMP JUMPDEST STOP JUMPDEST CALLVALUE DUP1 ISZERO PUSH2 0x11B JUMPI PUSH0 DUP1 REVERT JUMPDEST POP PUSH2 0x124 PUSH2 0x506 JUMP JUMPDEST PUSH1 0x40 MLOAD PUSH2 0x131 SWAP2 SWAP1 PUSH2 0xBFA JUMP JUMPDEST PUSH1 0x40 MLOAD DUP1 SWAP2 SUB SWAP1 RETURN JUMPDEST CALLVALUE DUP1 ISZERO PUSH2 0x145 JUMPI PUSH0 DUP1 REVERT JUMPDEST POP PUSH2 0x14E PUSH2 0x512 JUMP JUMPDEST PUSH1 0x40 MLOAD PUSH2 0x15B SWAP2 SWAP1 PUSH2 0xCB2 JUMP JUMPDEST PUSH1 0x40 MLOAD DUP1 SWAP2 SUB SWAP1 RETURN JUMPDEST CALLVALUE DUP1 ISZERO PUSH2 0x16F JUMPI PUSH0 DUP1 REVERT JUMPDEST POP PUSH2 0x178 PUSH2 0x539 JUMP JUMPDEST PUSH1 0x40 MLOAD PUSH2 0x185 SWAP2 SWAP1 PUSH2 0xD26 JUMP JUMPDEST PUSH1 0x40 MLOAD DUP1 SWAP2 SUB SWAP1 RETURN JUMPDEST PUSH2 0x196 PUSH2 0x561 JUMP JUMPDEST STOP JUMPDEST CALLVALUE DUP1 ISZERO PUSH2 0x1A3 JUMPI PUSH0 DUP1 REVERT JUMPDEST POP PUSH2 0x1AC PUSH2 0x693 JUMP JUMPDEST STOP JUMPDEST CALLVALUE DUP1 ISZERO PUSH2 0x1B9 JUMPI PUSH0 DUP1 REVERT JUMPDEST POP PUSH2 0x1D4 PUSH1 0x4 DUP1 CALLDATASIZE SUB DUP2 ADD SWAP1 PUSH2 0x1CF SWAP2 SWAP1 PUSH2 0xD69 JUMP JUMPDEST PUSH2 0x90B JUMP JUMPDEST PUSH1 0x40 MLOAD PUSH2 0x1E1 SWAP2 SWAP1 PUSH2 0xCB2 JUMP JUMPDEST PUSH1 0x40 MLOAD DUP1 SWAP2 SUB SWAP1 RETURN JUMPDEST CALLVALUE DUP1 ISZERO PUSH2 0x1F5 JUMPI PUSH0 DUP1 REVERT JUMPDEST POP PUSH2 0x1FE PUSH2 0x94E JUMP JUMPDEST PUSH1 0x40 MLOAD PUSH2 0x20B SWAP2 SWAP1 PUSH2 0xDAF JUMP JUMPDEST PUSH1 0x40 MLOAD DUP1 SWAP2 SUB SWAP1 RETURN JUMPDEST PUSH0 PUSH1 0x1 PUSH0 DUP4 PUSH20 0xFFFFFFFFFFFFFFFFFFFFFFFFFFFFFFFFFFFFFFFF AND PUSH20 0xFFFFFFFFFFFFFFFFFFFFFFFFFFFFFFFFFFFFFFFF AND DUP2 MSTORE PUSH1 0x20 ADD SWAP1 DUP2 MSTORE PUSH1 0x20 ADD PUSH0 KECCAK256 SLOAD SWAP1 POP SWAP2 SWAP1 POP JUMP JUMPDEST PUSH1 0x60 PUSH1 0x2 PUSH0 SWAP1 SLOAD SWAP1 PUSH2 0x100 EXP SWAP1 DIV PUSH20 0xFFFFFFFFFFFFFFFFFFFFFFFFFFFFFFFFFFFFFFFF AND PUSH20 0xFFFFFFFFFFFFFFFFFFFFFFFFFFFFFFFFFFFFFFFF AND PUSH4 0x7284E416 PUSH1 0x40 MLOAD DUP2 PUSH4 0xFFFFFFFF AND PUSH1 0xE0 SHL DUP2 MSTORE PUSH1 0x4 ADD PUSH0 PUSH1 0x40 MLOAD DUP1 DUP4 SUB DUP2 DUP7 GAS STATICCALL ISZERO DUP1 ISZERO PUSH2 0x2C5 JUMPI RETURNDATASIZE PUSH0 DUP1 RETURNDATACOPY RETURNDATASIZE PUSH0 REVERT JUMPDEST POP POP POP POP PUSH1 0x40 MLOAD RETURNDATASIZE PUSH0 DUP3 RETURNDATACOPY RETURNDATASIZE PUSH1 0x1F NOT PUSH1 0x1F DUP3 ADD AND DUP3 ADD DUP1 PUSH1 0x40 MSTORE POP DUP2 ADD SWAP1 PUSH2 0x2ED SWAP2 SWAP1 PUSH2 0xEE6 JUMP JUMPDEST SWAP1 POP SWAP1 JUMP JUMPDEST PUSH32 0x0 PUSH20 0xFFFFFFFFFFFFFFFFFFFFFFFFFFFFFFFFFFFFFFFF AND CALLER PUSH20 0xFFFFFFFFFFFFFFFFFFFFFFFFFFFFFFFFFFFFFFFF AND EQ PUSH2 0x377 JUMPI PUSH1 0x40 MLOAD PUSH32 0x579610DB00000000000000000000000000000000000000000000000000000000 DUP2 MSTORE PUSH1 0x4 ADD PUSH1 0x40 MLOAD DUP1 SWAP2 SUB SWAP1 REVERT JUMPDEST PUSH0 JUMPDEST PUSH0 DUP1 SLOAD SWAP1 POP DUP2 LT ISZERO PUSH2 0x413 JUMPI PUSH0 DUP1 DUP3 DUP2 SLOAD DUP2 LT PUSH2 0x399 JUMPI PUSH2 0x398 PUSH2 0xF2D JUMP JUMPDEST JUMPDEST SWAP1 PUSH0 MSTORE PUSH1 0x20 PUSH0 KECCAK256 ADD PUSH0 SWAP1 SLOAD SWAP1 PUSH2 0x100 EXP SWAP1 DIV PUSH20 0xFFFFFFFFFFFFFFFFFFFFFFFFFFFFFFFFFFFFFFFF AND SWAP1 POP PUSH0 PUSH1 0x1 PUSH0 DUP4 PUSH20 0xFFFFFFFFFFFFFFFFFFFFFFFFFFFFFFFFFFFFFFFF AND PUSH20 0xFFFFFFFFFFFFFFFFFFFFFFFFFFFFFFFFFFFFFFFF AND DUP2 MSTORE PUSH1 0x20 ADD SWAP1 DUP2 MSTORE PUSH1 0x20 ADD PUSH0 KECCAK256 DUP2 SWAP1 SSTORE POP POP DUP1 DUP1 PUSH1 0x1 ADD SWAP2 POP POP PUSH2 0x379 JUMP JUMPDEST POP PUSH0 PUSH8 0xFFFFFFFFFFFFFFFF DUP2 GT ISZERO PUSH2 0x42E JUMPI PUSH2 0x42D PUSH2 0xDD0 JUMP JUMPDEST JUMPDEST PUSH1 0x40 MLOAD SWAP1 DUP1 DUP3 MSTORE DUP1 PUSH1 0x20 MUL PUSH1 0x20 ADD DUP3 ADD PUSH1 0x40 MSTORE DUP1 ISZERO PUSH2 0x45C JUMPI DUP2 PUSH1 0x20 ADD PUSH1 0x20 DUP3 MUL DUP1 CALLDATASIZE DUP4 CALLDATACOPY DUP1 DUP3 ADD SWAP2 POP POP SWAP1 POP JUMPDEST POP PUSH0 SWAP1 DUP1 MLOAD SWAP1 PUSH1 0x20 ADD SWAP1 PUSH2 0x471 SWAP3 SWAP2 SWAP1 PUSH2 0xAAA JUMP JUMPDEST POP PUSH0 PUSH32 0x0 PUSH20 0xFFFFFFFFFFFFFFFFFFFFFFFFFFFFFFFFFFFFFFFF AND SELFBALANCE PUSH1 0x40 MLOAD PUSH2 0x4B7 SWAP1 PUSH2 0xF87 JUMP JUMPDEST PUSH0 PUSH1 0x40 MLOAD DUP1 DUP4 SUB DUP2 DUP6 DUP8 GAS CALL SWAP3 POP POP POP RETURNDATASIZE DUP1 PUSH0 DUP2 EQ PUSH2 0x4F1 JUMPI PUSH1 0x40 MLOAD SWAP2 POP PUSH1 0x1F NOT PUSH1 0x3F RETURNDATASIZE ADD AND DUP3 ADD PUSH1 0x40 MSTORE RETURNDATASIZE DUP3 MSTORE RETURNDATASIZE PUSH0 PUSH1 0x20 DUP5 ADD RETURNDATACOPY PUSH2 0x4F6 JUMP JUMPDEST PUSH1 0x60 SWAP2 POP JUMPDEST POP POP SWAP1 POP DUP1 PUSH2 0x503 JUMPI PUSH0 DUP1 REVERT JUMPDEST POP JUMP JUMPDEST PUSH8 0x4563918244F40000 DUP2 JUMP JUMPDEST PUSH0 PUSH32 0x0 SWAP1 POP SWAP1 JUMP JUMPDEST PUSH0 PUSH1 0x2 PUSH0 SWAP1 SLOAD SWAP1 PUSH2 0x100 EXP SWAP1 DIV PUSH20 0xFFFFFFFFFFFFFFFFFFFFFFFFFFFFFFFFFFFFFFFF AND SWAP1 POP SWAP1 JUMP JUMPDEST PUSH8 0x4563918244F40000 PUSH2 0x59E PUSH1 0x2 PUSH0 SWAP1 SLOAD SWAP1 PUSH2 0x100 EXP SWAP1 DIV PUSH20 0xFFFFFFFFFFFFFFFFFFFFFFFFFFFFFFFFFFFFFFFF AND CALLVALUE PUSH2 0x9E2 SWAP1 SWAP2 SWAP1 PUSH4 0xFFFFFFFF AND JUMP JUMPDEST LT ISZERO PUSH2 0x5DF JUMPI PUSH1 0x40 MLOAD PUSH32 0x8C379A000000000000000000000000000000000000000000000000000000000 DUP2 MSTORE PUSH1 0x4 ADD PUSH2 0x5D6 SWAP1 PUSH2 0xFE5 JUMP JUMPDEST PUSH1 0x40 MLOAD DUP1 SWAP2 SUB SWAP1 REVERT JUMPDEST CALLVALUE PUSH1 0x1 PUSH0 CALLER PUSH20 0xFFFFFFFFFFFFFFFFFFFFFFFFFFFFFFFFFFFFFFFF AND PUSH20 0xFFFFFFFFFFFFFFFFFFFFFFFFFFFFFFFFFFFFFFFF AND DUP2 MSTORE PUSH1 0x20 ADD SWAP1 DUP2 MSTORE PUSH1 0x20 ADD PUSH0 KECCAK256 PUSH0 DUP3 DUP3 SLOAD PUSH2 0x62B SWAP2 SWAP1 PUSH2 0x1030 JUMP JUMPDEST SWAP3 POP POP DUP2 SWAP1 SSTORE POP PUSH0 CALLER SWAP1 DUP1 PUSH1 0x1 DUP2 SLOAD ADD DUP1 DUP3 SSTORE DUP1 SWAP2 POP POP PUSH1 0x1 SWAP1 SUB SWAP1 PUSH0 MSTORE PUSH1 0x20 PUSH0 KECCAK256 ADD PUSH0 SWAP1 SWAP2 SWAP1 SWAP2 SWAP1 SWAP2 PUSH2 0x100 EXP DUP2 SLOAD DUP2 PUSH20 0xFFFFFFFFFFFFFFFFFFFFFFFFFFFFFFFFFFFFFFFF MUL NOT AND SWAP1 DUP4 PUSH20 0xFFFFFFFFFFFFFFFFFFFFFFFFFFFFFFFFFFFFFFFF AND MUL OR SWAP1 SSTORE POP JUMP JUMPDEST PUSH32 0x0 PUSH20 0xFFFFFFFFFFFFFFFFFFFFFFFFFFFFFFFFFFFFFFFF AND CALLER PUSH20 0xFFFFFFFFFFFFFFFFFFFFFFFFFFFFFFFFFFFFFFFF AND EQ PUSH2 0x718 JUMPI PUSH1 0x40 MLOAD PUSH32 0x579610DB00000000000000000000000000000000000000000000000000000000 DUP2 MSTORE PUSH1 0x4 ADD PUSH1 0x40 MLOAD DUP1 SWAP2 SUB SWAP1 REVERT JUMPDEST PUSH0 DUP1 DUP1 SLOAD DUP1 PUSH1 0x20 MUL PUSH1 0x20 ADD PUSH1 0x40 MLOAD SWAP1 DUP2 ADD PUSH1 0x40 MSTORE DUP1 SWAP3 SWAP2 SWAP1 DUP2 DUP2 MSTORE PUSH1 0x20 ADD DUP3 DUP1 SLOAD DUP1 ISZERO PUSH2 0x797 JUMPI PUSH1 0x20 MUL DUP3 ADD SWAP2 SWAP1 PUSH0 MSTORE PUSH1 0x20 PUSH0 KECCAK256 SWAP1 JUMPDEST DUP2 PUSH0 SWAP1 SLOAD SWAP1 PUSH2 0x100 EXP SWAP1 DIV PUSH20 0xFFFFFFFFFFFFFFFFFFFFFFFFFFFFFFFFFFFFFFFF AND PUSH20 0xFFFFFFFFFFFFFFFFFFFFFFFFFFFFFFFFFFFFFFFF AND DUP2 MSTORE PUSH1 0x20 ADD SWAP1 PUSH1 0x1 ADD SWAP1 DUP1 DUP4 GT PUSH2 0x74E JUMPI JUMPDEST POP POP POP POP POP SWAP1 POP PUSH0 JUMPDEST DUP2 MLOAD DUP2 LT ISZERO PUSH2 0x817 JUMPI PUSH0 DUP3 DUP3 DUP2 MLOAD DUP2 LT PUSH2 0x7BD JUMPI PUSH2 0x7BC PUSH2 0xF2D JUMP JUMPDEST JUMPDEST PUSH1 0x20 MUL PUSH1 0x20 ADD ADD MLOAD SWAP1 POP PUSH0 PUSH1 0x1 PUSH0 DUP4 PUSH20 0xFFFFFFFFFFFFFFFFFFFFFFFFFFFFFFFFFFFFFFFF AND PUSH20 0xFFFFFFFFFFFFFFFFFFFFFFFFFFFFFFFFFFFFFFFF AND DUP2 MSTORE PUSH1 0x20 ADD SWAP1 DUP2 MSTORE PUSH1 0x20 ADD PUSH0 KECCAK256 DUP2 SWAP1 SSTORE POP POP DUP1 DUP1 PUSH1 0x1 ADD SWAP2 POP POP PUSH2 0x7A0 JUMP JUMPDEST POP PUSH0 PUSH8 0xFFFFFFFFFFFFFFFF DUP2 GT ISZERO PUSH2 0x832 JUMPI PUSH2 0x831 PUSH2 0xDD0 JUMP JUMPDEST JUMPDEST PUSH1 0x40 MLOAD SWAP1 DUP1 DUP3 MSTORE DUP1 PUSH1 0x20 MUL PUSH1 0x20 ADD DUP3 ADD PUSH1 0x40 MSTORE DUP1 ISZERO PUSH2 0x860 JUMPI DUP2 PUSH1 0x20 ADD PUSH1 0x20 DUP3 MUL DUP1 CALLDATASIZE DUP4 CALLDATACOPY DUP1 DUP3 ADD SWAP2 POP POP SWAP1 POP JUMPDEST POP PUSH0 SWAP1 DUP1 MLOAD SWAP1 PUSH1 0x20 ADD SWAP1 PUSH2 0x875 SWAP3 SWAP2 SWAP1 PUSH2 0xAAA JUMP JUMPDEST POP PUSH0 PUSH32 0x0 PUSH20 0xFFFFFFFFFFFFFFFFFFFFFFFFFFFFFFFFFFFFFFFF AND SELFBALANCE PUSH1 0x40 MLOAD PUSH2 0x8BB SWAP1 PUSH2 0xF87 JUMP JUMPDEST PUSH0 PUSH1 0x40 MLOAD DUP1 DUP4 SUB DUP2 DUP6 DUP8 GAS CALL SWAP3 POP POP POP RETURNDATASIZE DUP1 PUSH0 DUP2 EQ PUSH2 0x8F5 JUMPI PUSH1 0x40 MLOAD SWAP2 POP PUSH1 0x1F NOT PUSH1 0x3F RETURNDATASIZE ADD AND DUP3 ADD PUSH1 0x40 MSTORE RETURNDATASIZE DUP3 MSTORE RETURNDATASIZE PUSH0 PUSH1 0x20 DUP5 ADD RETURNDATACOPY PUSH2 0x8FA JUMP JUMPDEST PUSH1 0x60 SWAP2 POP JUMPDEST POP POP SWAP1 POP DUP1 PUSH2 0x907 JUMPI PUSH0 DUP1 REVERT JUMPDEST POP POP JUMP JUMPDEST PUSH0 DUP1 DUP3 DUP2 SLOAD DUP2 LT PUSH2 0x91F JUMPI PUSH2 0x91E PUSH2 0xF2D JUMP JUMPDEST JUMPDEST SWAP1 PUSH0 MSTORE PUSH1 0x20 PUSH0 KECCAK256 ADD PUSH0 SWAP1 SLOAD SWAP1 PUSH2 0x100 EXP SWAP1 DIV PUSH20 0xFFFFFFFFFFFFFFFFFFFFFFFFFFFFFFFFFFFFFFFF AND SWAP1 POP SWAP2 SWAP1 POP JUMP JUMPDEST PUSH0 PUSH1 0x2 PUSH0 SWAP1 SLOAD SWAP1 PUSH2 0x100 EXP SWAP1 DIV PUSH20 0xFFFFFFFFFFFFFFFFFFFFFFFFFFFFFFFFFFFFFFFF AND PUSH20 0xFFFFFFFFFFFFFFFFFFFFFFFFFFFFFFFFFFFFFFFF AND PUSH4 0x313CE567 PUSH1 0x40 MLOAD DUP2 PUSH4 0xFFFFFFFF AND PUSH1 0xE0 SHL DUP2 MSTORE PUSH1 0x4 ADD PUSH1 0x20 PUSH1 0x40 MLOAD DUP1 DUP4 SUB DUP2 DUP7 GAS STATICCALL ISZERO DUP1 ISZERO PUSH2 0x9B9 JUMPI RETURNDATASIZE PUSH0 DUP1 RETURNDATACOPY RETURNDATASIZE PUSH0 REVERT JUMPDEST POP POP POP POP PUSH1 0x40 MLOAD RETURNDATASIZE PUSH1 0x1F NOT PUSH1 0x1F DUP3 ADD AND DUP3 ADD DUP1 PUSH1 0x40 MSTORE POP DUP2 ADD SWAP1 PUSH2 0x9DD SWAP2 SWAP1 PUSH2 0x108D JUMP JUMPDEST SWAP1 POP SWAP1 JUMP JUMPDEST PUSH0 DUP1 PUSH2 0x9ED DUP4 PUSH2 0xA1C JUMP JUMPDEST SWAP1 POP PUSH0 PUSH8 0xDE0B6B3A7640000 DUP6 DUP4 PUSH2 0xA05 SWAP2 SWAP1 PUSH2 0x10B8 JUMP JUMPDEST PUSH2 0xA0F SWAP2 SWAP1 PUSH2 0x1126 JUMP JUMPDEST SWAP1 POP DUP1 SWAP3 POP POP POP SWAP3 SWAP2 POP POP JUMP JUMPDEST PUSH0 DUP1 DUP3 PUSH20 0xFFFFFFFFFFFFFFFFFFFFFFFFFFFFFFFFFFFFFFFF AND PUSH4 0xFEAF968C PUSH1 0x40 MLOAD DUP2 PUSH4 0xFFFFFFFF AND PUSH1 0xE0 SHL DUP2 MSTORE PUSH1 0x4 ADD PUSH1 0xA0 PUSH1 0x40 MLOAD DUP1 DUP4 SUB DUP2 DUP7 GAS STATICCALL ISZERO DUP1 ISZERO PUSH2 0xA67 JUMPI RETURNDATASIZE PUSH0 DUP1 RETURNDATACOPY RETURNDATASIZE PUSH0 REVERT JUMPDEST POP POP POP POP PUSH1 0x40 MLOAD RETURNDATASIZE PUSH1 0x1F NOT PUSH1 0x1F DUP3 ADD AND DUP3 ADD DUP1 PUSH1 0x40 MSTORE POP DUP2 ADD SWAP1 PUSH2 0xA8B SWAP2 SWAP1 PUSH2 0x11DC JUMP JUMPDEST POP POP POP SWAP2 POP POP PUSH5 0x2540BE400 DUP2 PUSH2 0xAA2 SWAP2 SWAP1 PUSH2 0x1253 JUMP JUMPDEST SWAP2 POP POP SWAP2 SWAP1 POP JUMP JUMPDEST DUP3 DUP1 SLOAD DUP3 DUP3 SSTORE SWAP1 PUSH0 MSTORE PUSH1 0x20 PUSH0 KECCAK256 SWAP1 DUP2 ADD SWAP3 DUP3 ISZERO PUSH2 0xB20 JUMPI SWAP2 PUSH1 0x20 MUL DUP3 ADD JUMPDEST DUP3 DUP2 GT ISZERO PUSH2 0xB1F JUMPI DUP3 MLOAD DUP3 PUSH0 PUSH2 0x100 EXP DUP2 SLOAD DUP2 PUSH20 0xFFFFFFFFFFFFFFFFFFFFFFFFFFFFFFFFFFFFFFFF MUL NOT AND SWAP1 DUP4 PUSH20 0xFFFFFFFFFFFFFFFFFFFFFFFFFFFFFFFFFFFFFFFF AND MUL OR SWAP1 SSTORE POP SWAP2 PUSH1 0x20 ADD SWAP2 SWAP1 PUSH1 0x1 ADD SWAP1 PUSH2 0xAC8 JUMP JUMPDEST JUMPDEST POP SWAP1 POP PUSH2 0xB2D SWAP2 SWAP1 PUSH2 0xB31 JUMP JUMPDEST POP SWAP1 JUMP JUMPDEST JUMPDEST DUP1 DUP3 GT ISZERO PUSH2 0xB48 JUMPI PUSH0 DUP2 PUSH0 SWAP1 SSTORE POP PUSH1 0x1 ADD PUSH2 0xB32 JUMP JUMPDEST POP SWAP1 JUMP JUMPDEST PUSH0 PUSH1 0x40 MLOAD SWAP1 POP SWAP1 JUMP JUMPDEST PUSH0 DUP1 REVERT JUMPDEST PUSH0 DUP1 REVERT JUMPDEST PUSH0 PUSH20 0xFFFFFFFFFFFFFFFFFFFFFFFFFFFFFFFFFFFFFFFF DUP3 AND SWAP1 POP SWAP2 SWAP1 POP JUMP JUMPDEST PUSH0 PUSH2 0xB86 DUP3 PUSH2 0xB5D JUMP JUMPDEST SWAP1 POP SWAP2 SWAP1 POP JUMP JUMPDEST PUSH2 0xB96 DUP2 PUSH2 0xB7C JUMP JUMPDEST DUP2 EQ PUSH2 0xBA0 JUMPI PUSH0 DUP1 REVERT JUMPDEST POP JUMP JUMPDEST PUSH0 DUP2 CALLDATALOAD SWAP1 POP PUSH2 0xBB1 DUP2 PUSH2 0xB8D JUMP JUMPDEST SWAP3 SWAP2 POP POP JUMP JUMPDEST PUSH0 PUSH1 0x20 DUP3 DUP5 SUB SLT ISZERO PUSH2 0xBCC JUMPI PUSH2 0xBCB PUSH2 0xB55 JUMP JUMPDEST JUMPDEST PUSH0 PUSH2 0xBD9 DUP5 DUP3 DUP6 ADD PUSH2 0xBA3 JUMP JUMPDEST SWAP2 POP POP SWAP3 SWAP2 POP POP JUMP JUMPDEST PUSH0 DUP2 SWAP1 POP SWAP2 SWAP1 POP JUMP JUMPDEST PUSH2 0xBF4 DUP2 PUSH2 0xBE2 JUMP JUMPDEST DUP3 MSTORE POP POP JUMP JUMPDEST PUSH0 PUSH1 0x20 DUP3 ADD SWAP1 POP PUSH2 0xC0D PUSH0 DUP4 ADD DUP5 PUSH2 0xBEB JUMP JUMPDEST SWAP3 SWAP2 POP POP JUMP JUMPDEST PUSH0 DUP2 MLOAD SWAP1 POP SWAP2 SWAP1 POP JUMP JUMPDEST PUSH0 DUP3 DUP3 MSTORE PUSH1 0x20 DUP3 ADD SWAP1 POP SWAP3 SWAP2 POP POP JUMP JUMPDEST DUP3 DUP2 DUP4 MCOPY PUSH0 DUP4 DUP4 ADD MSTORE POP POP POP JUMP JUMPDEST PUSH0 PUSH1 0x1F NOT PUSH1 0x1F DUP4 ADD AND SWAP1 POP SWAP2 SWAP1 POP JUMP JUMPDEST PUSH0 PUSH2 0xC55 DUP3 PUSH2 0xC13 JUMP JUMPDEST PUSH2 0xC5F DUP2 DUP6 PUSH2 0xC1D JUMP JUMPDEST SWAP4 POP PUSH2 0xC6F DUP2 DUP6 PUSH1 0x20 DUP7 ADD PUSH2 0xC2D JUMP JUMPDEST PUSH2 0xC78 DUP2 PUSH2 0xC3B JUMP JUMPDEST DUP5 ADD SWAP2 POP POP SWAP3 SWAP2 POP POP JUMP JUMPDEST PUSH0 PUSH1 0x20 DUP3 ADD SWAP1 POP DUP2 DUP2 SUB PUSH0 DUP4 ADD MSTORE PUSH2 0xC9B DUP2 DUP5 PUSH2 0xC4B JUMP JUMPDEST SWAP1 POP SWAP3 SWAP2 POP POP JUMP JUMPDEST PUSH2 0xCAC DUP2 PUSH2 0xB7C JUMP JUMPDEST DUP3 MSTORE POP POP JUMP JUMPDEST PUSH0 PUSH1 0x20 DUP3 ADD SWAP1 POP PUSH2 0xCC5 PUSH0 DUP4 ADD DUP5 PUSH2 0xCA3 JUMP JUMPDEST SWAP3 SWAP2 POP POP JUMP JUMPDEST PUSH0 DUP2 SWAP1 POP SWAP2 SWAP1 POP JUMP JUMPDEST PUSH0 PUSH2 0xCEE PUSH2 0xCE9 PUSH2 0xCE4 DUP5 PUSH2 0xB5D JUMP JUMPDEST PUSH2 0xCCB JUMP JUMPDEST PUSH2 0xB5D JUMP JUMPDEST SWAP1 POP SWAP2 SWAP1 POP JUMP JUMPDEST PUSH0 PUSH2 0xCFF DUP3 PUSH2 0xCD4 JUMP JUMPDEST SWAP1 POP SWAP2 SWAP1 POP JUMP JUMPDEST PUSH0 PUSH2 0xD10 DUP3 PUSH2 0xCF5 JUMP JUMPDEST SWAP1 POP SWAP2 SWAP1 POP JUMP JUMPDEST PUSH2 0xD20 DUP2 PUSH2 0xD06 JUMP JUMPDEST DUP3 MSTORE POP POP JUMP JUMPDEST PUSH0 PUSH1 0x20 DUP3 ADD SWAP1 POP PUSH2 0xD39 PUSH0 DUP4 ADD DUP5 PUSH2 0xD17 JUMP JUMPDEST SWAP3 SWAP2 POP POP JUMP JUMPDEST PUSH2 0xD48 DUP2 PUSH2 0xBE2 JUMP JUMPDEST DUP2 EQ PUSH2 0xD52 JUMPI PUSH0 DUP1 REVERT JUMPDEST POP JUMP JUMPDEST PUSH0 DUP2 CALLDATALOAD SWAP1 POP PUSH2 0xD63 DUP2 PUSH2 0xD3F JUMP JUMPDEST SWAP3 SWAP2 POP POP JUMP JUMPDEST PUSH0 PUSH1 0x20 DUP3 DUP5 SUB SLT ISZERO PUSH2 0xD7E JUMPI PUSH2 0xD7D PUSH2 0xB55 JUMP JUMPDEST JUMPDEST PUSH0 PUSH2 0xD8B DUP5 DUP3 DUP6 ADD PUSH2 0xD55 JUMP JUMPDEST SWAP2 POP POP SWAP3 SWAP2 POP POP JUMP JUMPDEST PUSH0 PUSH1 0xFF DUP3 AND SWAP1 POP SWAP2 SWAP1 POP JUMP JUMPDEST PUSH2 0xDA9 DUP2 PUSH2 0xD94 JUMP JUMPDEST DUP3 MSTORE POP POP JUMP JUMPDEST PUSH0 PUSH1 0x20 DUP3 ADD SWAP1 POP PUSH2 0xDC2 PUSH0 DUP4 ADD DUP5 PUSH2 0xDA0 JUMP JUMPDEST SWAP3 SWAP2 POP POP JUMP JUMPDEST PUSH0 DUP1 REVERT JUMPDEST PUSH0 DUP1 REVERT JUMPDEST PUSH32 0x4E487B7100000000000000000000000000000000000000000000000000000000 PUSH0 MSTORE PUSH1 0x41 PUSH1 0x4 MSTORE PUSH1 0x24 PUSH0 REVERT JUMPDEST PUSH2 0xE06 DUP3 PUSH2 0xC3B JUMP JUMPDEST DUP2 ADD DUP2 DUP2 LT PUSH8 0xFFFFFFFFFFFFFFFF DUP3 GT OR ISZERO PUSH2 0xE25 JUMPI PUSH2 0xE24 PUSH2 0xDD0 JUMP JUMPDEST JUMPDEST DUP1 PUSH1 0x40 MSTORE POP POP POP JUMP JUMPDEST PUSH0 PUSH2 0xE37 PUSH2 0xB4C JUMP JUMPDEST SWAP1 POP PUSH2 0xE43 DUP3 DUP3 PUSH2 0xDFD JUMP JUMPDEST SWAP2 SWAP1 POP JUMP JUMPDEST PUSH0 PUSH8 0xFFFFFFFFFFFFFFFF DUP3 GT ISZERO PUSH2 0xE62 JUMPI PUSH2 0xE61 PUSH2 0xDD0 JUMP JUMPDEST JUMPDEST PUSH2 0xE6B DUP3 PUSH2 0xC3B JUMP JUMPDEST SWAP1 POP PUSH1 0x20 DUP2 ADD SWAP1 POP SWAP2 SWAP1 POP JUMP JUMPDEST PUSH0 PUSH2 0xE8A PUSH2 0xE85 DUP5 PUSH2 0xE48 JUMP JUMPDEST PUSH2 0xE2E JUMP JUMPDEST SWAP1 POP DUP3 DUP2 MSTORE PUSH1 0x20 DUP2 ADD DUP5 DUP5 DUP5 ADD GT ISZERO PUSH2 0xEA6 JUMPI PUSH2 0xEA5 PUSH2 0xDCC JUMP JUMPDEST JUMPDEST PUSH2 0xEB1 DUP5 DUP3 DUP6 PUSH2 0xC2D JUMP JUMPDEST POP SWAP4 SWAP3 POP POP POP JUMP JUMPDEST PUSH0 DUP3 PUSH1 0x1F DUP4 ADD SLT PUSH2 0xECD JUMPI PUSH2 0xECC PUSH2 0xDC8 JUMP JUMPDEST JUMPDEST DUP2 MLOAD PUSH2 0xEDD DUP5 DUP3 PUSH1 0x20 DUP7 ADD PUSH2 0xE78 JUMP JUMPDEST SWAP2 POP POP SWAP3 SWAP2 POP POP JUMP JUMPDEST PUSH0 PUSH1 0x20 DUP3 DUP5 SUB SLT ISZERO PUSH2 0xEFB JUMPI PUSH2 0xEFA PUSH2 0xB55 JUMP JUMPDEST JUMPDEST PUSH0 DUP3 ADD MLOAD PUSH8 0xFFFFFFFFFFFFFFFF DUP2 GT ISZERO PUSH2 0xF18 JUMPI PUSH2 0xF17 PUSH2 0xB59 JUMP JUMPDEST JUMPDEST PUSH2 0xF24 DUP5 DUP3 DUP6 ADD PUSH2 0xEB9 JUMP JUMPDEST SWAP2 POP POP SWAP3 SWAP2 POP POP JUMP JUMPDEST PUSH32 0x4E487B7100000000000000000000000000000000000000000000000000000000 PUSH0 MSTORE PUSH1 0x32 PUSH1 0x4 MSTORE PUSH1 0x24 PUSH0 REVERT JUMPDEST PUSH0 DUP2 SWAP1 POP SWAP3 SWAP2 POP POP JUMP JUMPDEST POP JUMP JUMPDEST PUSH0 PUSH2 0xF72 PUSH0 DUP4 PUSH2 0xF5A JUMP JUMPDEST SWAP2 POP PUSH2 0xF7D DUP3 PUSH2 0xF64 JUMP JUMPDEST PUSH0 DUP3 ADD SWAP1 POP SWAP2 SWAP1 POP JUMP JUMPDEST PUSH0 PUSH2 0xF91 DUP3 PUSH2 0xF67 JUMP JUMPDEST SWAP2 POP DUP2 SWAP1 POP SWAP2 SWAP1 POP JUMP JUMPDEST PUSH32 0x596F75206E65656420746F207370656E64206D6F726520455448210000000000 PUSH0 DUP3 ADD MSTORE POP JUMP JUMPDEST PUSH0 PUSH2 0xFCF PUSH1 0x1B DUP4 PUSH2 0xC1D JUMP JUMPDEST SWAP2 POP PUSH2 0xFDA DUP3 PUSH2 0xF9B JUMP JUMPDEST PUSH1 0x20 DUP3 ADD SWAP1 POP SWAP2 SWAP1 POP JUMP JUMPDEST PUSH0 PUSH1 0x20 DUP3 ADD SWAP1 POP DUP2 DUP2 SUB PUSH0 DUP4 ADD MSTORE PUSH2 0xFFC DUP2 PUSH2 0xFC3 JUMP JUMPDEST SWAP1 POP SWAP2 SWAP1 POP JUMP JUMPDEST PUSH32 0x4E487B7100000000000000000000000000000000000000000000000000000000 PUSH0 MSTORE PUSH1 0x11 PUSH1 0x4 MSTORE PUSH1 0x24 PUSH0 REVERT JUMPDEST PUSH0 PUSH2 0x103A DUP3 PUSH2 0xBE2 JUMP JUMPDEST SWAP2 POP PUSH2 0x1045 DUP4 PUSH2 0xBE2 JUMP JUMPDEST SWAP3 POP DUP3 DUP3 ADD SWAP1 POP DUP1 DUP3 GT ISZERO PUSH2 0x105D JUMPI PUSH2 0x105C PUSH2 0x1003 JUMP JUMPDEST JUMPDEST SWAP3 SWAP2 POP POP JUMP JUMPDEST PUSH2 0x106C DUP2 PUSH2 0xD94 JUMP JUMPDEST DUP2 EQ PUSH2 0x1076 JUMPI PUSH0 DUP1 REVERT JUMPDEST POP JUMP JUMPDEST PUSH0 DUP2 MLOAD SWAP1 POP PUSH2 0x1087 DUP2 PUSH2 0x1063 JUMP JUMPDEST SWAP3 SWAP2 POP POP JUMP JUMPDEST PUSH0 PUSH1 0x20 DUP3 DUP5 SUB SLT ISZERO PUSH2 0x10A2 JUMPI PUSH2 0x10A1 PUSH2 0xB55 JUMP JUMPDEST JUMPDEST PUSH0 PUSH2 0x10AF DUP5 DUP3 DUP6 ADD PUSH2 0x1079 JUMP JUMPDEST SWAP2 POP POP SWAP3 SWAP2 POP POP JUMP JUMPDEST PUSH0 PUSH2 0x10C2 DUP3 PUSH2 0xBE2 JUMP JUMPDEST SWAP2 POP PUSH2 0x10CD DUP4 PUSH2 0xBE2 JUMP JUMPDEST SWAP3 POP DUP3 DUP3 MUL PUSH2 0x10DB DUP2 PUSH2 0xBE2 JUMP JUMPDEST SWAP2 POP DUP3 DUP3 DIV DUP5 EQ DUP4 ISZERO OR PUSH2 0x10F2 JUMPI PUSH2 0x10F1 PUSH2 0x1003 JUMP JUMPDEST JUMPDEST POP SWAP3 SWAP2 POP POP JUMP JUMPDEST PUSH32 0x4E487B7100000000000000000000000000000000000000000000000000000000 PUSH0 MSTORE PUSH1 0x12 PUSH1 0x4 MSTORE PUSH1 0x24 PUSH0 REVERT JUMPDEST PUSH0 PUSH2 0x1130 DUP3 PUSH2 0xBE2 JUMP JUMPDEST SWAP2 POP PUSH2 0x113B DUP4 PUSH2 0xBE2 JUMP JUMPDEST SWAP3 POP DUP3 PUSH2 0x114B JUMPI PUSH2 0x114A PUSH2 0x10F9 JUMP JUMPDEST JUMPDEST DUP3 DUP3 DIV SWAP1 POP SWAP3 SWAP2 POP POP JUMP JUMPDEST PUSH0 PUSH10 0xFFFFFFFFFFFFFFFFFFFF DUP3 AND SWAP1 POP SWAP2 SWAP1 POP JUMP JUMPDEST PUSH2 0x1174 DUP2 PUSH2 0x1156 JUMP JUMPDEST DUP2 EQ PUSH2 0x117E JUMPI PUSH0 DUP1 REVERT JUMPDEST POP JUMP JUMPDEST PUSH0 DUP2 MLOAD SWAP1 POP PUSH2 0x118F DUP2 PUSH2 0x116B JUMP JUMPDEST SWAP3 SWAP2 POP POP JUMP JUMPDEST PUSH0 DUP2 SWAP1 POP SWAP2 SWAP1 POP JUMP JUMPDEST PUSH2 0x11A7 DUP2 PUSH2 0x1195 JUMP JUMPDEST DUP2 EQ PUSH2 0x11B1 JUMPI PUSH0 DUP1 REVERT JUMPDEST POP JUMP JUMPDEST PUSH0 DUP2 MLOAD SWAP1 POP PUSH2 0x11C2 DUP2 PUSH2 0x119E JUMP JUMPDEST SWAP3 SWAP2 POP POP JUMP JUMPDEST PUSH0 DUP2 MLOAD SWAP1 POP PUSH2 0x11D6 DUP2 PUSH2 0xD3F JUMP JUMPDEST SWAP3 SWAP2 POP POP JUMP JUMPDEST PUSH0 DUP1 PUSH0 DUP1 PUSH0 PUSH1 0xA0 DUP7 DUP9 SUB SLT ISZERO PUSH2 0x11F5 JUMPI PUSH2 0x11F4 PUSH2 0xB55 JUMP JUMPDEST JUMPDEST PUSH0 PUSH2 0x1202 DUP9 DUP3 DUP10 ADD PUSH2 0x1181 JUMP JUMPDEST SWAP6 POP POP PUSH1 0x20 PUSH2 0x1213 DUP9 DUP3 DUP10 ADD PUSH2 0x11B4 JUMP JUMPDEST SWAP5 POP POP PUSH1 0x40 PUSH2 0x1224 DUP9 DUP3 DUP10 ADD PUSH2 0x11C8 JUMP JUMPDEST SWAP4 POP POP PUSH1 0x60 PUSH2 0x1235 DUP9 DUP3 DUP10 ADD PUSH2 0x11C8 JUMP JUMPDEST SWAP3 POP POP PUSH1 0x80 PUSH2 0x1246 DUP9 DUP3 DUP10 ADD PUSH2 0x1181 JUMP JUMPDEST SWAP2 POP POP SWAP3 SWAP6 POP SWAP3 SWAP6 SWAP1 SWAP4 POP JUMP JUMPDEST PUSH0 PUSH2 0x125D DUP3 PUSH2 0x1195 JUMP JUMPDEST SWAP2 POP PUSH2 0x1268 DUP4 PUSH2 0x1195 JUMP JUMPDEST SWAP3 POP DUP3 DUP3 MUL PUSH2 0x1276 DUP2 PUSH2 0x1195 JUMP JUMPDEST SWAP2 POP PUSH32 0x8000000000000000000000000000000000000000000000000000000000000000 DUP5 EQ PUSH0 DUP5 SLT AND ISZERO PUSH2 0x12AD JUMPI PUSH2 0x12AC PUSH2 0x1003 JUMP JUMPDEST JUMPDEST DUP3 DUP3 SDIV DUP5 EQ DUP4 ISZERO OR PUSH2 0x12C2 JUMPI PUSH2 0x12C1 PUSH2 0x1003 JUMP JUMPDEST JUMPDEST POP SWAP3 SWAP2 POP POP JUMP INVALID LOG2 PUSH5 0x6970667358 0x22 SLT KECCAK256 DUP7 0x25 0xC7 PUSH0 DUP7 BALANCE BASEFEE DUP4 SWAP13 0x4F SWAP14 0x21 0xA7 0xED DUP1 DUP12 0xF 0xCE 0xEB SDIV DELEGATECALL 0xF7 SWAP5 SWAP1 MSTORE8 SLOAD 0xAC JUMPI EXTCODECOPY 0xD3 PUSH11 0x5464736F6C634300081A00 CALLER "
				},
				"gasEstimates": {
					"creation": {
						"codeDepositCost": "972600",
						"executionCost": "infinite",
						"totalCost": "infinite"
					},
					"external": {
						"MINIMUM_USD()": "392",
						"cheaperWithdraw()": "infinite",
						"fund()": "infinite",
						"getAddressToAmountFunded(address)": "2830",
						"getDecimals()": "infinite",
						"getDescription()": "infinite",
						"getFunder(uint256)": "5020",
						"getOwner()": "infinite",
						"getPriceFeed()": "infinite",
						"withdraw()": "infinite"
					}
				},
				"methodIdentifiers": {
					"MINIMUM_USD()": "6b69a592",
					"cheaperWithdraw()": "be2693f0",
					"fund()": "b60d4288",
					"getAddressToAmountFunded(address)": "0343fb25",
					"getDecimals()": "f0141d84",
					"getDescription()": "1a092541",
					"getFunder(uint256)": "d7b4750c",
					"getOwner()": "893d20e8",
					"getPriceFeed()": "9e87a5cd",
					"withdraw()": "3ccfd60b"
				}
			},
			"storageLayout": {
				"storage": [
					{
						"astId": 80,
						"contract": "src/FundMe.sol:FundMe",
						"label": "s_funders",
						"offset": 0,
						"slot": "0",
						"type": "t_array(t_address)dyn_storage"
					},
					{
						"astId": 84,
						"contract": "src/FundMe.sol:FundMe",
						"label": "s_addressToAmountFunded",
						"offset": 0,
						"slot": "1",
						"type": "t_mapping(t_address,t_uint256)"
					},
					{
						"astId": 87,
						"contract": "src/FundMe.sol:FundMe",
						"label": "s_priceFeed",
						"offset": 0,
						"slot": "2",
						"type": "t_contract(IAggregator)56"
					}
				],
				"types": {
					"t_address": {
						"encoding": "inplace",
						"label": "address",
						"numberOfBytes": "20"
					},
					"t_array(t_address)dyn_storage": {
						"base": "t_address",
						"encoding": "dynamic_array",
						"label": "address[]",
						"numberOfBytes": "32"
					},
					"t_contract(IAggregator)56": {
						"encoding": "inplace",
						"label": "contract IAggregator",
						"numberOfBytes": "20"
					},
					"t_mapping(t_address,t_uint256)": {
						"encoding": "mapping",
						"key": "t_address",
						"label": "mapping(address => uint256)",
						"numberOfBytes": "32",
						"value": "t_uint256"
					},
					"t_uint256": {
						"encoding": "inplace",
						"label": "uint256",
						"numberOfBytes": "32"
					}
				}
			},
			"userdoc": {
				"kind": "user",
				"methods": {
					"fund()": {
						"notice": "Funds our contract based on the KLAY/USDT price from Orakl"
					},
					"getAddressToAmountFunded(address)": {
						"notice": "Gets the amount that an address has funded"
					},
					"getDecimals()": {
						"notice": "Gets the decimals of the price feed"
					},
					"getDescription()": {
						"notice": "Gets the description of the price feed"
					},
					"getFunder(uint256)": {
						"notice": "Gets the funder at a specific index"
					},
					"getOwner()": {
						"notice": "Gets the owner of the contract"
					},
					"getPriceFeed()": {
						"notice": "Gets the price feed"
					}
				},
				"notice": "This contract is for creating a sample funding contract",
				"version": 1
			}
		}
	}
}